{
  "_format": "hh-sol-artifact-1",
  "contractName": "CommunityArtCollection",
  "sourceName": "contracts/CommunityArtCollection.sol",
  "abi": [
    {
      "inputs": [
        {
          "internalType": "string",
          "name": "_tokenURI",
          "type": "string"
        }
      ],
      "stateMutability": "nonpayable",
      "type": "constructor"
    },
    {
      "anonymous": false,
      "inputs": [
        {
          "indexed": true,
          "internalType": "address",
          "name": "owner",
          "type": "address"
        },
        {
          "indexed": true,
          "internalType": "address",
          "name": "approved",
          "type": "address"
        },
        {
          "indexed": true,
          "internalType": "uint256",
          "name": "tokenId",
          "type": "uint256"
        }
      ],
      "name": "Approval",
      "type": "event"
    },
    {
      "anonymous": false,
      "inputs": [
        {
          "indexed": true,
          "internalType": "address",
          "name": "owner",
          "type": "address"
        },
        {
          "indexed": true,
          "internalType": "address",
          "name": "operator",
          "type": "address"
        },
        {
          "indexed": false,
          "internalType": "bool",
          "name": "approved",
          "type": "bool"
        }
      ],
      "name": "ApprovalForAll",
      "type": "event"
    },
    {
      "anonymous": false,
      "inputs": [
        {
          "indexed": true,
          "internalType": "address",
          "name": "previousOwner",
          "type": "address"
        },
        {
          "indexed": true,
          "internalType": "address",
          "name": "newOwner",
          "type": "address"
        }
      ],
      "name": "OwnershipTransferred",
      "type": "event"
    },
    {
      "anonymous": false,
      "inputs": [
        {
          "indexed": false,
          "internalType": "address",
          "name": "account",
          "type": "address"
        }
      ],
      "name": "Paused",
      "type": "event"
    },
    {
      "anonymous": false,
      "inputs": [
        {
          "indexed": true,
          "internalType": "address",
          "name": "from",
          "type": "address"
        },
        {
          "indexed": true,
          "internalType": "address",
          "name": "to",
          "type": "address"
        },
        {
          "indexed": true,
          "internalType": "uint256",
          "name": "tokenId",
          "type": "uint256"
        }
      ],
      "name": "Transfer",
      "type": "event"
    },
    {
      "anonymous": false,
      "inputs": [
        {
          "indexed": false,
          "internalType": "address",
          "name": "account",
          "type": "address"
        }
      ],
      "name": "Unpaused",
      "type": "event"
    },
    {
      "inputs": [],
      "name": "_artIds",
      "outputs": [
        {
          "internalType": "uint256",
          "name": "_value",
          "type": "uint256"
        }
      ],
      "stateMutability": "view",
      "type": "function"
    },
    {
      "inputs": [
        {
          "internalType": "address",
          "name": "to",
          "type": "address"
        },
        {
          "internalType": "uint256",
          "name": "tokenId",
          "type": "uint256"
        }
      ],
      "name": "approve",
      "outputs": [],
      "stateMutability": "nonpayable",
      "type": "function"
    },
    {
      "inputs": [
        {
          "internalType": "uint256",
          "name": "_artId",
          "type": "uint256"
        }
      ],
      "name": "artistDonation",
      "outputs": [],
      "stateMutability": "payable",
      "type": "function"
    },
    {
      "inputs": [
        {
          "internalType": "uint256",
          "name": "_artId",
          "type": "uint256"
        },
        {
          "internalType": "address",
          "name": "_tokenAddress",
          "type": "address"
        },
        {
          "internalType": "uint256",
          "name": "_amount",
          "type": "uint256"
        }
      ],
      "name": "artistTokenDonation",
      "outputs": [],
      "stateMutability": "nonpayable",
      "type": "function"
    },
    {
      "inputs": [
        {
          "internalType": "address",
          "name": "owner",
          "type": "address"
        }
      ],
      "name": "balanceOf",
      "outputs": [
        {
          "internalType": "uint256",
          "name": "",
          "type": "uint256"
        }
      ],
      "stateMutability": "view",
      "type": "function"
    },
    {
      "inputs": [
        {
          "internalType": "uint256",
          "name": "tokenId",
          "type": "uint256"
        }
      ],
      "name": "getApproved",
      "outputs": [
        {
          "internalType": "address",
          "name": "",
          "type": "address"
        }
      ],
      "stateMutability": "view",
      "type": "function"
    },
    {
      "inputs": [
        {
          "internalType": "uint256",
          "name": "_artId",
          "type": "uint256"
        }
      ],
      "name": "getArtPiece",
      "outputs": [
        {
          "components": [
            {
              "internalType": "uint256",
              "name": "id",
              "type": "uint256"
            },
            {
              "internalType": "uint256",
              "name": "mintDate",
              "type": "uint256"
            },
            {
              "internalType": "address",
              "name": "winner",
              "type": "address"
            },
            {
              "internalType": "address",
              "name": "artistDonation",
              "type": "address"
            },
            {
              "internalType": "uint256",
              "name": "donationCount",
              "type": "uint256"
            }
          ],
          "internalType": "struct CommunityArtCollection.Art",
          "name": "",
          "type": "tuple"
        }
      ],
      "stateMutability": "view",
      "type": "function"
    },
    {
      "inputs": [],
      "name": "getCollection",
      "outputs": [
        {
          "components": [
            {
              "internalType": "uint256",
              "name": "id",
              "type": "uint256"
            },
            {
              "internalType": "uint256",
              "name": "mintDate",
              "type": "uint256"
            },
            {
              "internalType": "address",
              "name": "winner",
              "type": "address"
            },
            {
              "internalType": "address",
              "name": "artistDonation",
              "type": "address"
            },
            {
              "internalType": "uint256",
              "name": "donationCount",
              "type": "uint256"
            }
          ],
          "internalType": "struct CommunityArtCollection.Art[]",
          "name": "",
          "type": "tuple[]"
        }
      ],
      "stateMutability": "view",
      "type": "function"
    },
    {
      "inputs": [],
      "name": "getWinners",
      "outputs": [
        {
          "internalType": "address[]",
          "name": "",
          "type": "address[]"
        }
      ],
      "stateMutability": "view",
      "type": "function"
    },
    {
      "inputs": [
        {
          "internalType": "address",
          "name": "owner",
          "type": "address"
        },
        {
          "internalType": "address",
          "name": "operator",
          "type": "address"
        }
      ],
      "name": "isApprovedForAll",
      "outputs": [
        {
          "internalType": "bool",
          "name": "",
          "type": "bool"
        }
      ],
      "stateMutability": "view",
      "type": "function"
    },
    {
      "inputs": [],
      "name": "name",
      "outputs": [
        {
          "internalType": "string",
          "name": "",
          "type": "string"
        }
      ],
      "stateMutability": "view",
      "type": "function"
    },
    {
      "inputs": [],
      "name": "owner",
      "outputs": [
        {
          "internalType": "address",
          "name": "",
          "type": "address"
        }
      ],
      "stateMutability": "view",
      "type": "function"
    },
    {
      "inputs": [
        {
          "internalType": "uint256",
          "name": "tokenId",
          "type": "uint256"
        }
      ],
      "name": "ownerOf",
      "outputs": [
        {
          "internalType": "address",
          "name": "",
          "type": "address"
        }
      ],
      "stateMutability": "view",
      "type": "function"
    },
    {
      "inputs": [],
      "name": "pauseMinting",
      "outputs": [],
      "stateMutability": "nonpayable",
      "type": "function"
    },
    {
      "inputs": [],
      "name": "paused",
      "outputs": [
        {
          "internalType": "bool",
          "name": "",
          "type": "bool"
        }
      ],
      "stateMutability": "view",
      "type": "function"
    },
    {
      "inputs": [],
      "name": "renounceOwnership",
      "outputs": [],
      "stateMutability": "nonpayable",
      "type": "function"
    },
    {
      "inputs": [
        {
          "internalType": "address",
          "name": "_winner",
          "type": "address"
        },
        {
          "internalType": "address",
          "name": "_artist",
          "type": "address"
        }
      ],
      "name": "reward",
      "outputs": [],
      "stateMutability": "nonpayable",
      "type": "function"
    },
    {
      "inputs": [
        {
          "internalType": "address",
          "name": "from",
          "type": "address"
        },
        {
          "internalType": "address",
          "name": "to",
          "type": "address"
        },
        {
          "internalType": "uint256",
          "name": "tokenId",
          "type": "uint256"
        }
      ],
      "name": "safeTransferFrom",
      "outputs": [],
      "stateMutability": "nonpayable",
      "type": "function"
    },
    {
      "inputs": [
        {
          "internalType": "address",
          "name": "from",
          "type": "address"
        },
        {
          "internalType": "address",
          "name": "to",
          "type": "address"
        },
        {
          "internalType": "uint256",
          "name": "tokenId",
          "type": "uint256"
        },
        {
          "internalType": "bytes",
          "name": "_data",
          "type": "bytes"
        }
      ],
      "name": "safeTransferFrom",
      "outputs": [],
      "stateMutability": "nonpayable",
      "type": "function"
    },
    {
      "inputs": [
        {
          "internalType": "address",
          "name": "operator",
          "type": "address"
        },
        {
          "internalType": "bool",
          "name": "approved",
          "type": "bool"
        }
      ],
      "name": "setApprovalForAll",
      "outputs": [],
      "stateMutability": "nonpayable",
      "type": "function"
    },
    {
      "inputs": [
        {
          "internalType": "string",
          "name": "baseURI",
          "type": "string"
        }
      ],
      "name": "setBaseURI",
      "outputs": [],
      "stateMutability": "nonpayable",
      "type": "function"
    },
    {
      "inputs": [
        {
          "internalType": "bytes4",
          "name": "interfaceId",
          "type": "bytes4"
        }
      ],
      "name": "supportsInterface",
      "outputs": [
        {
          "internalType": "bool",
          "name": "",
          "type": "bool"
        }
      ],
      "stateMutability": "view",
      "type": "function"
    },
    {
      "inputs": [],
      "name": "symbol",
      "outputs": [
        {
          "internalType": "string",
          "name": "",
          "type": "string"
        }
      ],
      "stateMutability": "view",
      "type": "function"
    },
    {
      "inputs": [
        {
          "internalType": "uint256",
          "name": "index",
          "type": "uint256"
        }
      ],
      "name": "tokenByIndex",
      "outputs": [
        {
          "internalType": "uint256",
          "name": "",
          "type": "uint256"
        }
      ],
      "stateMutability": "view",
      "type": "function"
    },
    {
      "inputs": [
        {
          "internalType": "address",
          "name": "owner",
          "type": "address"
        },
        {
          "internalType": "uint256",
          "name": "index",
          "type": "uint256"
        }
      ],
      "name": "tokenOfOwnerByIndex",
      "outputs": [
        {
          "internalType": "uint256",
          "name": "",
          "type": "uint256"
        }
      ],
      "stateMutability": "view",
      "type": "function"
    },
    {
      "inputs": [
        {
          "internalType": "uint256",
          "name": "tokenId",
          "type": "uint256"
        }
      ],
      "name": "tokenURI",
      "outputs": [
        {
          "internalType": "string",
          "name": "",
          "type": "string"
        }
      ],
      "stateMutability": "view",
      "type": "function"
    },
    {
      "inputs": [],
      "name": "totalSupply",
      "outputs": [
        {
          "internalType": "uint256",
          "name": "",
          "type": "uint256"
        }
      ],
      "stateMutability": "view",
      "type": "function"
    },
    {
      "inputs": [
        {
          "internalType": "address",
          "name": "from",
          "type": "address"
        },
        {
          "internalType": "address",
          "name": "to",
          "type": "address"
        },
        {
          "internalType": "uint256",
          "name": "tokenId",
          "type": "uint256"
        }
      ],
      "name": "transferFrom",
      "outputs": [],
      "stateMutability": "nonpayable",
      "type": "function"
    },
    {
      "inputs": [
        {
          "internalType": "address",
          "name": "newOwner",
          "type": "address"
        }
      ],
      "name": "transferOwnership",
      "outputs": [],
      "stateMutability": "nonpayable",
      "type": "function"
    },
    {
      "inputs": [],
      "name": "unpauseMinting",
      "outputs": [],
      "stateMutability": "nonpayable",
      "type": "function"
    }
  ],
  "bytecode": "0x60806040523480156200001157600080fd5b506040516200501438038062005014833981810160405281019062000037919062000312565b60405180606001604052806025815260200162004fef602591396040518060400160405280600581526020017f444443414300000000000000000000000000000000000000000000000000000081525081600090805190602001906200009f929190620001e4565b508060019080519060200190620000b8929190620001e4565b505050620000db620000cf6200011660201b60201c565b6200011e60201b60201c565b6000600a60146101000a81548160ff02191690831515021790555080600c90805190602001906200010e929190620001e4565b5050620004e7565b600033905090565b6000600a60009054906101000a900473ffffffffffffffffffffffffffffffffffffffff16905081600a60006101000a81548173ffffffffffffffffffffffffffffffffffffffff021916908373ffffffffffffffffffffffffffffffffffffffff1602179055508173ffffffffffffffffffffffffffffffffffffffff168173ffffffffffffffffffffffffffffffffffffffff167f8be0079c531659141344cd1fd0a4f28419497f9722a3daafe3b4186f6b6457e060405160405180910390a35050565b828054620001f290620003f8565b90600052602060002090601f01602090048101928262000216576000855562000262565b82601f106200023157805160ff191683800117855562000262565b8280016001018555821562000262579182015b828111156200026157825182559160200191906001019062000244565b5b50905062000271919062000275565b5090565b5b808211156200029057600081600090555060010162000276565b5090565b6000620002ab620002a5846200038c565b62000363565b905082815260208101848484011115620002ca57620002c9620004c7565b5b620002d7848285620003c2565b509392505050565b600082601f830112620002f757620002f6620004c2565b5b81516200030984826020860162000294565b91505092915050565b6000602082840312156200032b576200032a620004d1565b5b600082015167ffffffffffffffff8111156200034c576200034b620004cc565b5b6200035a84828501620002df565b91505092915050565b60006200036f62000382565b90506200037d82826200042e565b919050565b6000604051905090565b600067ffffffffffffffff821115620003aa57620003a962000493565b5b620003b582620004d6565b9050602081019050919050565b60005b83811015620003e2578082015181840152602081019050620003c5565b83811115620003f2576000848401525b50505050565b600060028204905060018216806200041157607f821691505b6020821081141562000428576200042762000464565b5b50919050565b6200043982620004d6565b810181811067ffffffffffffffff821117156200045b576200045a62000493565b5b80604052505050565b7f4e487b7100000000000000000000000000000000000000000000000000000000600052602260045260246000fd5b7f4e487b7100000000000000000000000000000000000000000000000000000000600052604160045260246000fd5b600080fd5b600080fd5b600080fd5b600080fd5b6000601f19601f8301169050919050565b614af880620004f76000396000f3fe6080604052600436106101cd5760003560e01c80635c975abb116100f7578063a22cb46511610095578063da8fbf2a11610064578063da8fbf2a14610679578063df15c37e14610690578063e985e9c5146106bb578063f2fde38b146106f8576101cd565b8063a22cb465146105d3578063ae200322146105fc578063b88d4fde14610613578063c87b56dd1461063c576101cd565b8063715018a6116100d1578063715018a61461053d5780638da5cb5b1461055457806391dc1b051461057f57806395d89b41146105a8576101cd565b80635c975abb146104985780636352211e146104c357806370a0823114610500576101cd565b80632e03e4681161016f57806342842e0e1161013e57806342842e0e146103e05780634d5b0081146104095780634f6ccce71461043257806355f804b31461046f576101cd565b80632e03e468146103105780632f745c591461034d5780633e1e5c891461038a5780634251921e146103b5576101cd565b8063081812fc116101ab578063081812fc14610256578063095ea7b31461029357806318160ddd146102bc57806323b872dd146102e7576101cd565b806301ffc9a7146101d257806305b045981461020f57806306fdde031461022b575b600080fd5b3480156101de57600080fd5b506101f960048036038101906101f4919061345c565b610721565b6040516102069190613ca7565b60405180910390f35b610229600480360381019061022491906134ff565b610803565b005b34801561023757600080fd5b506102406108f2565b60405161024d9190613cc2565b60405180910390f35b34801561026257600080fd5b5061027d600480360381019061027891906134ff565b610984565b60405161028a9190613baa565b60405180910390f35b34801561029f57600080fd5b506102ba60048036038101906102b591906133ef565b610a09565b005b3480156102c857600080fd5b506102d1610b21565b6040516102de9190613fbf565b60405180910390f35b3480156102f357600080fd5b5061030e600480360381019061030991906132d9565b610b2e565b005b34801561031c57600080fd5b50610337600480360381019061033291906134ff565b610b8e565b6040516103449190613fa4565b60405180910390f35b34801561035957600080fd5b50610374600480360381019061036f91906133ef565b610c85565b6040516103819190613fbf565b60405180910390f35b34801561039657600080fd5b5061039f610d2a565b6040516103ac9190613fbf565b60405180910390f35b3480156103c157600080fd5b506103ca610d36565b6040516103d79190613c85565b60405180910390f35b3480156103ec57600080fd5b50610407600480360381019061040291906132d9565b610ed0565b005b34801561041557600080fd5b50610430600480360381019061042b9190613299565b610ef0565b005b34801561043e57600080fd5b50610459600480360381019061045491906134ff565b6110f1565b6040516104669190613fbf565b60405180910390f35b34801561047b57600080fd5b50610496600480360381019061049191906134b6565b611162565b005b3480156104a457600080fd5b506104ad6111f8565b6040516104ba9190613ca7565b60405180910390f35b3480156104cf57600080fd5b506104ea60048036038101906104e591906134ff565b61120f565b6040516104f79190613baa565b60405180910390f35b34801561050c57600080fd5b506105276004803603810190610522919061326c565b6112c1565b6040516105349190613fbf565b60405180910390f35b34801561054957600080fd5b50610552611379565b005b34801561056057600080fd5b50610569611401565b6040516105769190613baa565b60405180910390f35b34801561058b57600080fd5b506105a660048036038101906105a19190613559565b61142b565b005b3480156105b457600080fd5b506105bd611707565b6040516105ca9190613cc2565b60405180910390f35b3480156105df57600080fd5b506105fa60048036038101906105f591906133af565b611799565b005b34801561060857600080fd5b506106116117af565b005b34801561061f57600080fd5b5061063a6004803603810190610635919061332c565b611835565b005b34801561064857600080fd5b50610663600480360381019061065e91906134ff565b611897565b6040516106709190613cc2565b60405180910390f35b34801561068557600080fd5b5061068e6118d1565b005b34801561069c57600080fd5b506106a5611957565b6040516106b29190613c63565b60405180910390f35b3480156106c757600080fd5b506106e260048036038101906106dd9190613299565b611a0b565b6040516106ef9190613ca7565b60405180910390f35b34801561070457600080fd5b5061071f600480360381019061071a919061326c565b611a9f565b005b60007f80ac58cd000000000000000000000000000000000000000000000000000000007bffffffffffffffffffffffffffffffffffffffffffffffffffffffff1916827bffffffffffffffffffffffffffffffffffffffffffffffffffffffff191614806107ec57507f5b5e139f000000000000000000000000000000000000000000000000000000007bffffffffffffffffffffffffffffffffffffffffffffffffffffffff1916827bffffffffffffffffffffffffffffffffffffffffffffffffffffffff1916145b806107fc57506107fb82611b97565b5b9050919050565b60003411610846576040517f08c379a000000000000000000000000000000000000000000000000000000000815260040161083d90613f24565b60405180910390fd5b600d600082815260200190815260200160002060030160009054906101000a900473ffffffffffffffffffffffffffffffffffffffff1673ffffffffffffffffffffffffffffffffffffffff166108fc349081150290604051600060405180830381858888f193505050501580156108c2573d6000803e3d6000fd5b50600d600082815260200190815260200160002060040160008154809291906108ea906142ea565b919050555050565b60606000805461090190614287565b80601f016020809104026020016040519081016040528092919081815260200182805461092d90614287565b801561097a5780601f1061094f5761010080835404028352916020019161097a565b820191906000526020600020905b81548152906001019060200180831161095d57829003601f168201915b5050505050905090565b600061098f82611c11565b6109ce576040517f08c379a00000000000000000000000000000000000000000000000000000000081526004016109c590613ee4565b60405180910390fd5b6004600083815260200190815260200160002060009054906101000a900473ffffffffffffffffffffffffffffffffffffffff169050919050565b6000610a148261120f565b90508073ffffffffffffffffffffffffffffffffffffffff168373ffffffffffffffffffffffffffffffffffffffff161415610a85576040517f08c379a0000000000000000000000000000000000000000000000000000000008152600401610a7c90613f44565b60405180910390fd5b8073ffffffffffffffffffffffffffffffffffffffff16610aa4611c7d565b73ffffffffffffffffffffffffffffffffffffffff161480610ad35750610ad281610acd611c7d565b611a0b565b5b610b12576040517f08c379a0000000000000000000000000000000000000000000000000000000008152600401610b0990613e64565b60405180910390fd5b610b1c8383611c85565b505050565b6000600880549050905090565b610b3f610b39611c7d565b82611d3e565b610b7e576040517f08c379a0000000000000000000000000000000000000000000000000000000008152600401610b7590613f64565b60405180910390fd5b610b89838383611e1c565b505050565b610b96612ffb565b600d60008381526020019081526020016000206040518060a001604052908160008201548152602001600182015481526020016002820160009054906101000a900473ffffffffffffffffffffffffffffffffffffffff1673ffffffffffffffffffffffffffffffffffffffff1673ffffffffffffffffffffffffffffffffffffffff1681526020016003820160009054906101000a900473ffffffffffffffffffffffffffffffffffffffff1673ffffffffffffffffffffffffffffffffffffffff1673ffffffffffffffffffffffffffffffffffffffff1681526020016004820154815250509050919050565b6000610c90836112c1565b8210610cd1576040517f08c379a0000000000000000000000000000000000000000000000000000000008152600401610cc890613d24565b60405180910390fd5b600660008473ffffffffffffffffffffffffffffffffffffffff1673ffffffffffffffffffffffffffffffffffffffff168152602001908152602001600020600083815260200190815260200160002054905092915050565b600b8060000154905081565b60606000610d42610b21565b67ffffffffffffffff811115610d5b57610d5a61444f565b5b604051908082528060200260200182016040528015610d9457816020015b610d81612ffb565b815260200190600190039081610d795790505b50905060005b610da2610b21565b811015610ec8576000600d60008381526020019081526020016000209050806040518060a001604052908160008201548152602001600182015481526020016002820160009054906101000a900473ffffffffffffffffffffffffffffffffffffffff1673ffffffffffffffffffffffffffffffffffffffff1673ffffffffffffffffffffffffffffffffffffffff1681526020016003820160009054906101000a900473ffffffffffffffffffffffffffffffffffffffff1673ffffffffffffffffffffffffffffffffffffffff1673ffffffffffffffffffffffffffffffffffffffff168152602001600482015481525050838381518110610ea957610ea8614420565b5b6020026020010181905250508080610ec0906142ea565b915050610d9a565b508091505090565b610eeb83838360405180602001604052806000815250611835565b505050565b610ef86111f8565b15610f38576040517f08c379a0000000000000000000000000000000000000000000000000000000008152600401610f2f90613e44565b60405180910390fd5b610f40611c7d565b73ffffffffffffffffffffffffffffffffffffffff16610f5e611401565b73ffffffffffffffffffffffffffffffffffffffff1614610fb4576040517f08c379a0000000000000000000000000000000000000000000000000000000008152600401610fab90613f04565b60405180910390fd5b6000610fc0600b612083565b90506040518060a001604052808281526020014281526020018473ffffffffffffffffffffffffffffffffffffffff1681526020018373ffffffffffffffffffffffffffffffffffffffff1681526020016000815250600d6000838152602001908152602001600020600082015181600001556020820151816001015560408201518160020160006101000a81548173ffffffffffffffffffffffffffffffffffffffff021916908373ffffffffffffffffffffffffffffffffffffffff16021790555060608201518160030160006101000a81548173ffffffffffffffffffffffffffffffffffffffff021916908373ffffffffffffffffffffffffffffffffffffffff160217905550608082015181600401559050506110e28382612091565b6110ec600b6120af565b505050565b60006110fb610b21565b821061113c576040517f08c379a000000000000000000000000000000000000000000000000000000000815260040161113390613f84565b60405180910390fd5b600882815481106111505761114f614420565b5b90600052602060002001549050919050565b61116a611c7d565b73ffffffffffffffffffffffffffffffffffffffff16611188611401565b73ffffffffffffffffffffffffffffffffffffffff16146111de576040517f08c379a00000000000000000000000000000000000000000000000000000000081526004016111d590613f04565b60405180910390fd5b80600c90805190602001906111f4929190613056565b5050565b6000600a60149054906101000a900460ff16905090565b6000806002600084815260200190815260200160002060009054906101000a900473ffffffffffffffffffffffffffffffffffffffff169050600073ffffffffffffffffffffffffffffffffffffffff168173ffffffffffffffffffffffffffffffffffffffff1614156112b8576040517f08c379a00000000000000000000000000000000000000000000000000000000081526004016112af90613ea4565b60405180910390fd5b80915050919050565b60008073ffffffffffffffffffffffffffffffffffffffff168273ffffffffffffffffffffffffffffffffffffffff161415611332576040517f08c379a000000000000000000000000000000000000000000000000000000000815260040161132990613e84565b60405180910390fd5b600360008373ffffffffffffffffffffffffffffffffffffffff1673ffffffffffffffffffffffffffffffffffffffff168152602001908152602001600020549050919050565b611381611c7d565b73ffffffffffffffffffffffffffffffffffffffff1661139f611401565b73ffffffffffffffffffffffffffffffffffffffff16146113f5576040517f08c379a00000000000000000000000000000000000000000000000000000000081526004016113ec90613f04565b60405180910390fd5b6113ff60006120c5565b565b6000600a60009054906101000a900473ffffffffffffffffffffffffffffffffffffffff16905090565b6000811161146e576040517f08c379a000000000000000000000000000000000000000000000000000000000815260040161146590613f24565b60405180910390fd5b808273ffffffffffffffffffffffffffffffffffffffff166370a08231611493611c7d565b6040518263ffffffff1660e01b81526004016114af9190613baa565b60206040518083038186803b1580156114c757600080fd5b505afa1580156114db573d6000803e3d6000fd5b505050506040513d601f19601f820116820180604052508101906114ff919061352c565b1161153f576040517f08c379a000000000000000000000000000000000000000000000000000000000815260040161153690613d04565b60405180910390fd5b808273ffffffffffffffffffffffffffffffffffffffff1663dd62ed3e611564611c7d565b306040518363ffffffff1660e01b8152600401611582929190613bc5565b60206040518083038186803b15801561159a57600080fd5b505afa1580156115ae573d6000803e3d6000fd5b505050506040513d601f19601f820116820180604052508101906115d2919061352c565b11611612576040517f08c379a000000000000000000000000000000000000000000000000000000000815260040161160990613e04565b60405180910390fd5b8173ffffffffffffffffffffffffffffffffffffffff1663a9059cbb600d600086815260200190815260200160002060030160009054906101000a900473ffffffffffffffffffffffffffffffffffffffff16836040518363ffffffff1660e01b8152600401611683929190613c3a565b602060405180830381600087803b15801561169d57600080fd5b505af11580156116b1573d6000803e3d6000fd5b505050506040513d601f19601f820116820180604052508101906116d5919061342f565b50600d600084815260200190815260200160002060040160008154809291906116fd906142ea565b9190505550505050565b60606001805461171690614287565b80601f016020809104026020016040519081016040528092919081815260200182805461174290614287565b801561178f5780601f106117645761010080835404028352916020019161178f565b820191906000526020600020905b81548152906001019060200180831161177257829003601f168201915b5050505050905090565b6117ab6117a4611c7d565b838361218b565b5050565b6117b7611c7d565b73ffffffffffffffffffffffffffffffffffffffff166117d5611401565b73ffffffffffffffffffffffffffffffffffffffff161461182b576040517f08c379a000000000000000000000000000000000000000000000000000000000815260040161182290613f04565b60405180910390fd5b6118336122f8565b565b611846611840611c7d565b83611d3e565b611885576040517f08c379a000000000000000000000000000000000000000000000000000000000815260040161187c90613f64565b60405180910390fd5b6118918484848461239a565b50505050565b60606118a16123f6565b6118aa83612488565b6040516020016118bb929190613b7b565b6040516020818303038152906040529050919050565b6118d9611c7d565b73ffffffffffffffffffffffffffffffffffffffff166118f7611401565b73ffffffffffffffffffffffffffffffffffffffff161461194d576040517f08c379a000000000000000000000000000000000000000000000000000000000815260040161194490613f04565b60405180910390fd5b6119556125e9565b565b60608060005b611965610b21565b811015611a0357600d600082815260200190815260200160002060020160009054906101000a900473ffffffffffffffffffffffffffffffffffffffff168282815181106119b6576119b5614420565b5b602002602001019073ffffffffffffffffffffffffffffffffffffffff16908173ffffffffffffffffffffffffffffffffffffffff168152505080806119fb906142ea565b91505061195d565b508091505090565b6000600560008473ffffffffffffffffffffffffffffffffffffffff1673ffffffffffffffffffffffffffffffffffffffff16815260200190815260200160002060008373ffffffffffffffffffffffffffffffffffffffff1673ffffffffffffffffffffffffffffffffffffffff16815260200190815260200160002060009054906101000a900460ff16905092915050565b611aa7611c7d565b73ffffffffffffffffffffffffffffffffffffffff16611ac5611401565b73ffffffffffffffffffffffffffffffffffffffff1614611b1b576040517f08c379a0000000000000000000000000000000000000000000000000000000008152600401611b1290613f04565b60405180910390fd5b600073ffffffffffffffffffffffffffffffffffffffff168173ffffffffffffffffffffffffffffffffffffffff161415611b8b576040517f08c379a0000000000000000000000000000000000000000000000000000000008152600401611b8290613d64565b60405180910390fd5b611b94816120c5565b50565b60007f780e9d63000000000000000000000000000000000000000000000000000000007bffffffffffffffffffffffffffffffffffffffffffffffffffffffff1916827bffffffffffffffffffffffffffffffffffffffffffffffffffffffff19161480611c0a5750611c098261268c565b5b9050919050565b60008073ffffffffffffffffffffffffffffffffffffffff166002600084815260200190815260200160002060009054906101000a900473ffffffffffffffffffffffffffffffffffffffff1673ffffffffffffffffffffffffffffffffffffffff1614159050919050565b600033905090565b816004600083815260200190815260200160002060006101000a81548173ffffffffffffffffffffffffffffffffffffffff021916908373ffffffffffffffffffffffffffffffffffffffff160217905550808273ffffffffffffffffffffffffffffffffffffffff16611cf88361120f565b73ffffffffffffffffffffffffffffffffffffffff167f8c5be1e5ebec7d5bd14f71427d1e84f3dd0314c0f7b2291e5b200ac8c7c3b92560405160405180910390a45050565b6000611d4982611c11565b611d88576040517f08c379a0000000000000000000000000000000000000000000000000000000008152600401611d7f90613e24565b60405180910390fd5b6000611d938361120f565b90508073ffffffffffffffffffffffffffffffffffffffff168473ffffffffffffffffffffffffffffffffffffffff161480611e0257508373ffffffffffffffffffffffffffffffffffffffff16611dea84610984565b73ffffffffffffffffffffffffffffffffffffffff16145b80611e135750611e128185611a0b565b5b91505092915050565b8273ffffffffffffffffffffffffffffffffffffffff16611e3c8261120f565b73ffffffffffffffffffffffffffffffffffffffff1614611e92576040517f08c379a0000000000000000000000000000000000000000000000000000000008152600401611e8990613d84565b60405180910390fd5b600073ffffffffffffffffffffffffffffffffffffffff168273ffffffffffffffffffffffffffffffffffffffff161415611f02576040517f08c379a0000000000000000000000000000000000000000000000000000000008152600401611ef990613dc4565b60405180910390fd5b611f0d83838361276e565b611f18600082611c85565b6001600360008573ffffffffffffffffffffffffffffffffffffffff1673ffffffffffffffffffffffffffffffffffffffff1681526020019081526020016000206000828254611f68919061419d565b925050819055506001600360008473ffffffffffffffffffffffffffffffffffffffff1673ffffffffffffffffffffffffffffffffffffffff1681526020019081526020016000206000828254611fbf9190614116565b92505081905550816002600083815260200190815260200160002060006101000a81548173ffffffffffffffffffffffffffffffffffffffff021916908373ffffffffffffffffffffffffffffffffffffffff160217905550808273ffffffffffffffffffffffffffffffffffffffff168473ffffffffffffffffffffffffffffffffffffffff167fddf252ad1be2c89b69c2b068fc378daa952ba7f163c4a11628f55a4df523b3ef60405160405180910390a461207e83838361277e565b505050565b600081600001549050919050565b6120ab828260405180602001604052806000815250612783565b5050565b6001816000016000828254019250508190555050565b6000600a60009054906101000a900473ffffffffffffffffffffffffffffffffffffffff16905081600a60006101000a81548173ffffffffffffffffffffffffffffffffffffffff021916908373ffffffffffffffffffffffffffffffffffffffff1602179055508173ffffffffffffffffffffffffffffffffffffffff168173ffffffffffffffffffffffffffffffffffffffff167f8be0079c531659141344cd1fd0a4f28419497f9722a3daafe3b4186f6b6457e060405160405180910390a35050565b8173ffffffffffffffffffffffffffffffffffffffff168373ffffffffffffffffffffffffffffffffffffffff1614156121fa576040517f08c379a00000000000000000000000000000000000000000000000000000000081526004016121f190613de4565b60405180910390fd5b80600560008573ffffffffffffffffffffffffffffffffffffffff1673ffffffffffffffffffffffffffffffffffffffff16815260200190815260200160002060008473ffffffffffffffffffffffffffffffffffffffff1673ffffffffffffffffffffffffffffffffffffffff16815260200190815260200160002060006101000a81548160ff0219169083151502179055508173ffffffffffffffffffffffffffffffffffffffff168373ffffffffffffffffffffffffffffffffffffffff167f17307eab39ab6107e8899845ad3d59bd9653f200f220920489ca2b5937696c31836040516122eb9190613ca7565b60405180910390a3505050565b6123006111f8565b61233f576040517f08c379a000000000000000000000000000000000000000000000000000000000815260040161233690613ce4565b60405180910390fd5b6000600a60146101000a81548160ff0219169083151502179055507f5db9ee0a495bf2e6ff9c91a7834c1ba4fdd244a5e8aa4e537bd38aeae4b073aa612383611c7d565b6040516123909190613baa565b60405180910390a1565b6123a5848484611e1c565b6123b1848484846127de565b6123f0576040517f08c379a00000000000000000000000000000000000000000000000000000000081526004016123e790613d44565b60405180910390fd5b50505050565b6060600c805461240590614287565b80601f016020809104026020016040519081016040528092919081815260200182805461243190614287565b801561247e5780601f106124535761010080835404028352916020019161247e565b820191906000526020600020905b81548152906001019060200180831161246157829003601f168201915b5050505050905090565b606060008214156124d0576040518060400160405280600181526020017f300000000000000000000000000000000000000000000000000000000000000081525090506125e4565b600082905060005b600082146125025780806124eb906142ea565b915050600a826124fb919061416c565b91506124d8565b60008167ffffffffffffffff81111561251e5761251d61444f565b5b6040519080825280601f01601f1916602001820160405280156125505781602001600182028036833780820191505090505b5090505b600085146125dd57600182612569919061419d565b9150600a856125789190614333565b60306125849190614116565b60f81b81838151811061259a57612599614420565b5b60200101907effffffffffffffffffffffffffffffffffffffffffffffffffffffffffffff1916908160001a905350600a856125d6919061416c565b9450612554565b8093505050505b919050565b6125f16111f8565b15612631576040517f08c379a000000000000000000000000000000000000000000000000000000000815260040161262890613e44565b60405180910390fd5b6001600a60146101000a81548160ff0219169083151502179055507f62e78cea01bee320cd4e420270b5ea74000d11b0c9f74754ebdbfc544b05a258612675611c7d565b6040516126829190613baa565b60405180910390a1565b60007f80ac58cd000000000000000000000000000000000000000000000000000000007bffffffffffffffffffffffffffffffffffffffffffffffffffffffff1916827bffffffffffffffffffffffffffffffffffffffffffffffffffffffff1916148061275757507f5b5e139f000000000000000000000000000000000000000000000000000000007bffffffffffffffffffffffffffffffffffffffffffffffffffffffff1916827bffffffffffffffffffffffffffffffffffffffffffffffffffffffff1916145b80612767575061276682612975565b5b9050919050565b6127798383836129df565b505050565b505050565b61278d8383612af3565b61279a60008484846127de565b6127d9576040517f08c379a00000000000000000000000000000000000000000000000000000000081526004016127d090613d44565b60405180910390fd5b505050565b60006127ff8473ffffffffffffffffffffffffffffffffffffffff16612ccd565b15612968578373ffffffffffffffffffffffffffffffffffffffff1663150b7a02612828611c7d565b8786866040518563ffffffff1660e01b815260040161284a9493929190613bee565b602060405180830381600087803b15801561286457600080fd5b505af192505050801561289557506040513d601f19601f820116820180604052508101906128929190613489565b60015b612918573d80600081146128c5576040519150601f19603f3d011682016040523d82523d6000602084013e6128ca565b606091505b50600081511415612910576040517f08c379a000000000000000000000000000000000000000000000000000000000815260040161290790613d44565b60405180910390fd5b805181602001fd5b63150b7a0260e01b7bffffffffffffffffffffffffffffffffffffffffffffffffffffffff1916817bffffffffffffffffffffffffffffffffffffffffffffffffffffffff19161491505061296d565b600190505b949350505050565b60007f01ffc9a7000000000000000000000000000000000000000000000000000000007bffffffffffffffffffffffffffffffffffffffffffffffffffffffff1916827bffffffffffffffffffffffffffffffffffffffffffffffffffffffff1916149050919050565b6129ea838383612cf0565b600073ffffffffffffffffffffffffffffffffffffffff168373ffffffffffffffffffffffffffffffffffffffff161415612a2d57612a2881612cf5565b612a6c565b8173ffffffffffffffffffffffffffffffffffffffff168373ffffffffffffffffffffffffffffffffffffffff1614612a6b57612a6a8382612d3e565b5b5b600073ffffffffffffffffffffffffffffffffffffffff168273ffffffffffffffffffffffffffffffffffffffff161415612aaf57612aaa81612eab565b612aee565b8273ffffffffffffffffffffffffffffffffffffffff168273ffffffffffffffffffffffffffffffffffffffff1614612aed57612aec8282612f7c565b5b5b505050565b600073ffffffffffffffffffffffffffffffffffffffff168273ffffffffffffffffffffffffffffffffffffffff161415612b63576040517f08c379a0000000000000000000000000000000000000000000000000000000008152600401612b5a90613ec4565b60405180910390fd5b612b6c81611c11565b15612bac576040517f08c379a0000000000000000000000000000000000000000000000000000000008152600401612ba390613da4565b60405180910390fd5b612bb86000838361276e565b6001600360008473ffffffffffffffffffffffffffffffffffffffff1673ffffffffffffffffffffffffffffffffffffffff1681526020019081526020016000206000828254612c089190614116565b92505081905550816002600083815260200190815260200160002060006101000a81548173ffffffffffffffffffffffffffffffffffffffff021916908373ffffffffffffffffffffffffffffffffffffffff160217905550808273ffffffffffffffffffffffffffffffffffffffff16600073ffffffffffffffffffffffffffffffffffffffff167fddf252ad1be2c89b69c2b068fc378daa952ba7f163c4a11628f55a4df523b3ef60405160405180910390a4612cc96000838361277e565b5050565b6000808273ffffffffffffffffffffffffffffffffffffffff163b119050919050565b505050565b6008805490506009600083815260200190815260200160002081905550600881908060018154018082558091505060019003906000526020600020016000909190919091505550565b60006001612d4b846112c1565b612d55919061419d565b9050600060076000848152602001908152602001600020549050818114612e3a576000600660008673ffffffffffffffffffffffffffffffffffffffff1673ffffffffffffffffffffffffffffffffffffffff168152602001908152602001600020600084815260200190815260200160002054905080600660008773ffffffffffffffffffffffffffffffffffffffff1673ffffffffffffffffffffffffffffffffffffffff168152602001908152602001600020600084815260200190815260200160002081905550816007600083815260200190815260200160002081905550505b6007600084815260200190815260200160002060009055600660008573ffffffffffffffffffffffffffffffffffffffff1673ffffffffffffffffffffffffffffffffffffffff16815260200190815260200160002060008381526020019081526020016000206000905550505050565b60006001600880549050612ebf919061419d565b9050600060096000848152602001908152602001600020549050600060088381548110612eef57612eee614420565b5b906000526020600020015490508060088381548110612f1157612f10614420565b5b906000526020600020018190555081600960008381526020019081526020016000208190555060096000858152602001908152602001600020600090556008805480612f6057612f5f6143f1565b5b6001900381819060005260206000200160009055905550505050565b6000612f87836112c1565b905081600660008573ffffffffffffffffffffffffffffffffffffffff1673ffffffffffffffffffffffffffffffffffffffff168152602001908152602001600020600083815260200190815260200160002081905550806007600084815260200190815260200160002081905550505050565b6040518060a001604052806000815260200160008152602001600073ffffffffffffffffffffffffffffffffffffffff168152602001600073ffffffffffffffffffffffffffffffffffffffff168152602001600081525090565b82805461306290614287565b90600052602060002090601f01602090048101928261308457600085556130cb565b82601f1061309d57805160ff19168380011785556130cb565b828001600101855582156130cb579182015b828111156130ca5782518255916020019190600101906130af565b5b5090506130d891906130dc565b5090565b5b808211156130f55760008160009055506001016130dd565b5090565b600061310c61310784613fff565b613fda565b90508281526020810184848401111561312857613127614483565b5b613133848285614245565b509392505050565b600061314e61314984614030565b613fda565b90508281526020810184848401111561316a57613169614483565b5b613175848285614245565b509392505050565b60008135905061318c81614a66565b92915050565b6000813590506131a181614a7d565b92915050565b6000815190506131b681614a7d565b92915050565b6000813590506131cb81614a94565b92915050565b6000815190506131e081614a94565b92915050565b600082601f8301126131fb576131fa61447e565b5b813561320b8482602086016130f9565b91505092915050565b600082601f8301126132295761322861447e565b5b813561323984826020860161313b565b91505092915050565b60008135905061325181614aab565b92915050565b60008151905061326681614aab565b92915050565b6000602082840312156132825761328161448d565b5b60006132908482850161317d565b91505092915050565b600080604083850312156132b0576132af61448d565b5b60006132be8582860161317d565b92505060206132cf8582860161317d565b9150509250929050565b6000806000606084860312156132f2576132f161448d565b5b60006133008682870161317d565b93505060206133118682870161317d565b925050604061332286828701613242565b9150509250925092565b600080600080608085870312156133465761334561448d565b5b60006133548782880161317d565b94505060206133658782880161317d565b935050604061337687828801613242565b925050606085013567ffffffffffffffff81111561339757613396614488565b5b6133a3878288016131e6565b91505092959194509250565b600080604083850312156133c6576133c561448d565b5b60006133d48582860161317d565b92505060206133e585828601613192565b9150509250929050565b600080604083850312156134065761340561448d565b5b60006134148582860161317d565b925050602061342585828601613242565b9150509250929050565b6000602082840312156134455761344461448d565b5b6000613453848285016131a7565b91505092915050565b6000602082840312156134725761347161448d565b5b6000613480848285016131bc565b91505092915050565b60006020828403121561349f5761349e61448d565b5b60006134ad848285016131d1565b91505092915050565b6000602082840312156134cc576134cb61448d565b5b600082013567ffffffffffffffff8111156134ea576134e9614488565b5b6134f684828501613214565b91505092915050565b6000602082840312156135155761351461448d565b5b600061352384828501613242565b91505092915050565b6000602082840312156135425761354161448d565b5b600061355084828501613257565b91505092915050565b6000806000606084860312156135725761357161448d565b5b600061358086828701613242565b93505060206135918682870161317d565b92505060406135a286828701613242565b9150509250925092565b60006135b883836135dc565b60208301905092915050565b60006135d08383613a8d565b60a08301905092915050565b6135e5816141d1565b82525050565b6135f4816141d1565b82525050565b600061360582614081565b61360f81856140c7565b935061361a83614061565b8060005b8381101561364b57815161363288826135ac565b975061363d836140ad565b92505060018101905061361e565b5085935050505092915050565b60006136638261408c565b61366d81856140d8565b935061367883614071565b8060005b838110156136a957815161369088826135c4565b975061369b836140ba565b92505060018101905061367c565b5085935050505092915050565b6136bf816141e3565b82525050565b60006136d082614097565b6136da81856140e9565b93506136ea818560208601614254565b6136f381614492565b840191505092915050565b6000613709826140a2565b61371381856140fa565b9350613723818560208601614254565b61372c81614492565b840191505092915050565b6000613742826140a2565b61374c818561410b565b935061375c818560208601614254565b80840191505092915050565b60006137756014836140fa565b9150613780826144a3565b602082019050919050565b60006137986030836140fa565b91506137a3826144cc565b604082019050919050565b60006137bb602b836140fa565b91506137c68261451b565b604082019050919050565b60006137de6032836140fa565b91506137e98261456a565b604082019050919050565b60006138016026836140fa565b915061380c826145b9565b604082019050919050565b60006138246025836140fa565b915061382f82614608565b604082019050919050565b6000613847601c836140fa565b915061385282614657565b602082019050919050565b600061386a6024836140fa565b915061387582614680565b604082019050919050565b600061388d6019836140fa565b9150613898826146cf565b602082019050919050565b60006138b0601b836140fa565b91506138bb826146f8565b602082019050919050565b60006138d3602c836140fa565b91506138de82614721565b604082019050919050565b60006138f66010836140fa565b915061390182614770565b602082019050919050565b60006139196038836140fa565b915061392482614799565b604082019050919050565b600061393c602a836140fa565b9150613947826147e8565b604082019050919050565b600061395f6029836140fa565b915061396a82614837565b604082019050919050565b60006139826020836140fa565b915061398d82614886565b602082019050919050565b60006139a5602c836140fa565b91506139b0826148af565b604082019050919050565b60006139c860058361410b565b91506139d3826148fe565b600582019050919050565b60006139eb6020836140fa565b91506139f682614927565b602082019050919050565b6000613a0e6020836140fa565b9150613a1982614950565b602082019050919050565b6000613a316021836140fa565b9150613a3c82614979565b604082019050919050565b6000613a546031836140fa565b9150613a5f826149c8565b604082019050919050565b6000613a77602c836140fa565b9150613a8282614a17565b604082019050919050565b60a082016000820151613aa36000850182613b5d565b506020820151613ab66020850182613b5d565b506040820151613ac960408501826135dc565b506060820151613adc60608501826135dc565b506080820151613aef6080850182613b5d565b50505050565b60a082016000820151613b0b6000850182613b5d565b506020820151613b1e6020850182613b5d565b506040820151613b3160408501826135dc565b506060820151613b4460608501826135dc565b506080820151613b576080850182613b5d565b50505050565b613b668161423b565b82525050565b613b758161423b565b82525050565b6000613b878285613737565b9150613b938284613737565b9150613b9e826139bb565b91508190509392505050565b6000602082019050613bbf60008301846135eb565b92915050565b6000604082019050613bda60008301856135eb565b613be760208301846135eb565b9392505050565b6000608082019050613c0360008301876135eb565b613c1060208301866135eb565b613c1d6040830185613b6c565b8181036060830152613c2f81846136c5565b905095945050505050565b6000604082019050613c4f60008301856135eb565b613c5c6020830184613b6c565b9392505050565b60006020820190508181036000830152613c7d81846135fa565b905092915050565b60006020820190508181036000830152613c9f8184613658565b905092915050565b6000602082019050613cbc60008301846136b6565b92915050565b60006020820190508181036000830152613cdc81846136fe565b905092915050565b60006020820190508181036000830152613cfd81613768565b9050919050565b60006020820190508181036000830152613d1d8161378b565b9050919050565b60006020820190508181036000830152613d3d816137ae565b9050919050565b60006020820190508181036000830152613d5d816137d1565b9050919050565b60006020820190508181036000830152613d7d816137f4565b9050919050565b60006020820190508181036000830152613d9d81613817565b9050919050565b60006020820190508181036000830152613dbd8161383a565b9050919050565b60006020820190508181036000830152613ddd8161385d565b9050919050565b60006020820190508181036000830152613dfd81613880565b9050919050565b60006020820190508181036000830152613e1d816138a3565b9050919050565b60006020820190508181036000830152613e3d816138c6565b9050919050565b60006020820190508181036000830152613e5d816138e9565b9050919050565b60006020820190508181036000830152613e7d8161390c565b9050919050565b60006020820190508181036000830152613e9d8161392f565b9050919050565b60006020820190508181036000830152613ebd81613952565b9050919050565b60006020820190508181036000830152613edd81613975565b9050919050565b60006020820190508181036000830152613efd81613998565b9050919050565b60006020820190508181036000830152613f1d816139de565b9050919050565b60006020820190508181036000830152613f3d81613a01565b9050919050565b60006020820190508181036000830152613f5d81613a24565b9050919050565b60006020820190508181036000830152613f7d81613a47565b9050919050565b60006020820190508181036000830152613f9d81613a6a565b9050919050565b600060a082019050613fb96000830184613af5565b92915050565b6000602082019050613fd46000830184613b6c565b92915050565b6000613fe4613ff5565b9050613ff082826142b9565b919050565b6000604051905090565b600067ffffffffffffffff82111561401a5761401961444f565b5b61402382614492565b9050602081019050919050565b600067ffffffffffffffff82111561404b5761404a61444f565b5b61405482614492565b9050602081019050919050565b6000819050602082019050919050565b6000819050602082019050919050565b600081519050919050565b600081519050919050565b600081519050919050565b600081519050919050565b6000602082019050919050565b6000602082019050919050565b600082825260208201905092915050565b600082825260208201905092915050565b600082825260208201905092915050565b600082825260208201905092915050565b600081905092915050565b60006141218261423b565b915061412c8361423b565b9250827fffffffffffffffffffffffffffffffffffffffffffffffffffffffffffffffff0382111561416157614160614364565b5b828201905092915050565b60006141778261423b565b91506141828361423b565b92508261419257614191614393565b5b828204905092915050565b60006141a88261423b565b91506141b38361423b565b9250828210156141c6576141c5614364565b5b828203905092915050565b60006141dc8261421b565b9050919050565b60008115159050919050565b60007fffffffff0000000000000000000000000000000000000000000000000000000082169050919050565b600073ffffffffffffffffffffffffffffffffffffffff82169050919050565b6000819050919050565b82818337600083830152505050565b60005b83811015614272578082015181840152602081019050614257565b83811115614281576000848401525b50505050565b6000600282049050600182168061429f57607f821691505b602082108114156142b3576142b26143c2565b5b50919050565b6142c282614492565b810181811067ffffffffffffffff821117156142e1576142e061444f565b5b80604052505050565b60006142f58261423b565b91507fffffffffffffffffffffffffffffffffffffffffffffffffffffffffffffffff82141561432857614327614364565b5b600182019050919050565b600061433e8261423b565b91506143498361423b565b92508261435957614358614393565b5b828206905092915050565b7f4e487b7100000000000000000000000000000000000000000000000000000000600052601160045260246000fd5b7f4e487b7100000000000000000000000000000000000000000000000000000000600052601260045260246000fd5b7f4e487b7100000000000000000000000000000000000000000000000000000000600052602260045260246000fd5b7f4e487b7100000000000000000000000000000000000000000000000000000000600052603160045260246000fd5b7f4e487b7100000000000000000000000000000000000000000000000000000000600052603260045260246000fd5b7f4e487b7100000000000000000000000000000000000000000000000000000000600052604160045260246000fd5b600080fd5b600080fd5b600080fd5b600080fd5b6000601f19601f8301169050919050565b7f5061757361626c653a206e6f7420706175736564000000000000000000000000600082015250565b7f596f7520646f6e2774206f776e20656e6f75676820746f6b656e7320746f207360008201527f656e64207468697320616d6f756e742e00000000000000000000000000000000602082015250565b7f455243373231456e756d657261626c653a206f776e657220696e646578206f7560008201527f74206f6620626f756e6473000000000000000000000000000000000000000000602082015250565b7f4552433732313a207472616e7366657220746f206e6f6e20455243373231526560008201527f63656976657220696d706c656d656e7465720000000000000000000000000000602082015250565b7f4f776e61626c653a206e6577206f776e657220697320746865207a65726f206160008201527f6464726573730000000000000000000000000000000000000000000000000000602082015250565b7f4552433732313a207472616e736665722066726f6d20696e636f72726563742060008201527f6f776e6572000000000000000000000000000000000000000000000000000000602082015250565b7f4552433732313a20746f6b656e20616c7265616479206d696e74656400000000600082015250565b7f4552433732313a207472616e7366657220746f20746865207a65726f2061646460008201527f7265737300000000000000000000000000000000000000000000000000000000602082015250565b7f4552433732313a20617070726f766520746f2063616c6c657200000000000000600082015250565b7f4e6f7420656e6f75676820746f6b656e20616c6c6f77616e63652e0000000000600082015250565b7f4552433732313a206f70657261746f7220717565727920666f72206e6f6e657860008201527f697374656e7420746f6b656e0000000000000000000000000000000000000000602082015250565b7f5061757361626c653a2070617573656400000000000000000000000000000000600082015250565b7f4552433732313a20617070726f76652063616c6c6572206973206e6f74206f7760008201527f6e6572206e6f7220617070726f76656420666f7220616c6c0000000000000000602082015250565b7f4552433732313a2062616c616e636520717565727920666f7220746865207a6560008201527f726f206164647265737300000000000000000000000000000000000000000000602082015250565b7f4552433732313a206f776e657220717565727920666f72206e6f6e657869737460008201527f656e7420746f6b656e0000000000000000000000000000000000000000000000602082015250565b7f4552433732313a206d696e7420746f20746865207a65726f2061646472657373600082015250565b7f4552433732313a20617070726f76656420717565727920666f72206e6f6e657860008201527f697374656e7420746f6b656e0000000000000000000000000000000000000000602082015250565b7f2e6a736f6e000000000000000000000000000000000000000000000000000000600082015250565b7f4f776e61626c653a2063616c6c6572206973206e6f7420746865206f776e6572600082015250565b7f446f6e6174696f6e73206d7573742062652067726561746572207468616e2030600082015250565b7f4552433732313a20617070726f76616c20746f2063757272656e74206f776e6560008201527f7200000000000000000000000000000000000000000000000000000000000000602082015250565b7f4552433732313a207472616e736665722063616c6c6572206973206e6f74206f60008201527f776e6572206e6f7220617070726f766564000000000000000000000000000000602082015250565b7f455243373231456e756d657261626c653a20676c6f62616c20696e646578206f60008201527f7574206f6620626f756e64730000000000000000000000000000000000000000602082015250565b614a6f816141d1565b8114614a7a57600080fd5b50565b614a86816141e3565b8114614a9157600080fd5b50565b614a9d816141ef565b8114614aa857600080fd5b50565b614ab48161423b565b8114614abf57600080fd5b5056fea2646970667358221220cb1c3992d8f4eecaeb9c7d9c2f8e1ee93cf04a51623f81d96d2d53c002dd497764736f6c63430008070033446567656e2044776172667320436f6d6d756e6974792041727420436f6c6c656374696f6e",
  "linkReferences": {},
  "deployedLinkReferences": {}
}