{
  "_format": "hh-sol-artifact-1",
  "contractName": "CommunityArtCollection",
  "sourceName": "contracts/CommunityArtCollection.sol",
  "abi": [
    {
      "inputs": [
        {
          "internalType": "string",
          "name": "_tokenURI",
          "type": "string"
        }
      ],
      "stateMutability": "nonpayable",
      "type": "constructor"
    },
    {
      "anonymous": false,
      "inputs": [
        {
          "indexed": true,
          "internalType": "address",
          "name": "owner",
          "type": "address"
        },
        {
          "indexed": true,
          "internalType": "address",
          "name": "approved",
          "type": "address"
        },
        {
          "indexed": true,
          "internalType": "uint256",
          "name": "tokenId",
          "type": "uint256"
        }
      ],
      "name": "Approval",
      "type": "event"
    },
    {
      "anonymous": false,
      "inputs": [
        {
          "indexed": true,
          "internalType": "address",
          "name": "owner",
          "type": "address"
        },
        {
          "indexed": true,
          "internalType": "address",
          "name": "operator",
          "type": "address"
        },
        {
          "indexed": false,
          "internalType": "bool",
          "name": "approved",
          "type": "bool"
        }
      ],
      "name": "ApprovalForAll",
      "type": "event"
    },
    {
      "anonymous": false,
      "inputs": [
        {
          "indexed": true,
          "internalType": "address",
          "name": "previousOwner",
          "type": "address"
        },
        {
          "indexed": true,
          "internalType": "address",
          "name": "newOwner",
          "type": "address"
        }
      ],
      "name": "OwnershipTransferred",
      "type": "event"
    },
    {
      "anonymous": false,
      "inputs": [
        {
          "indexed": false,
          "internalType": "address",
          "name": "account",
          "type": "address"
        }
      ],
      "name": "Paused",
      "type": "event"
    },
    {
      "anonymous": false,
      "inputs": [
        {
          "indexed": true,
          "internalType": "address",
          "name": "from",
          "type": "address"
        },
        {
          "indexed": true,
          "internalType": "address",
          "name": "to",
          "type": "address"
        },
        {
          "indexed": true,
          "internalType": "uint256",
          "name": "tokenId",
          "type": "uint256"
        }
      ],
      "name": "Transfer",
      "type": "event"
    },
    {
      "anonymous": false,
      "inputs": [
        {
          "indexed": false,
          "internalType": "address",
          "name": "account",
          "type": "address"
        }
      ],
      "name": "Unpaused",
      "type": "event"
    },
    {
      "inputs": [],
      "name": "_artIds",
      "outputs": [
        {
          "internalType": "uint256",
          "name": "_value",
          "type": "uint256"
        }
      ],
      "stateMutability": "view",
      "type": "function"
    },
    {
      "inputs": [
        {
          "internalType": "address",
          "name": "to",
          "type": "address"
        },
        {
          "internalType": "uint256",
          "name": "tokenId",
          "type": "uint256"
        }
      ],
      "name": "approve",
      "outputs": [],
      "stateMutability": "nonpayable",
      "type": "function"
    },
    {
      "inputs": [
        {
          "internalType": "uint256",
          "name": "_artId",
          "type": "uint256"
        }
      ],
      "name": "artistDonation",
      "outputs": [],
      "stateMutability": "payable",
      "type": "function"
    },
    {
      "inputs": [
        {
          "internalType": "uint256",
          "name": "_artId",
          "type": "uint256"
        },
        {
          "internalType": "address",
          "name": "_tokenAddress",
          "type": "address"
        },
        {
          "internalType": "uint256",
          "name": "_amount",
          "type": "uint256"
        }
      ],
      "name": "artistTokenDonation",
      "outputs": [],
      "stateMutability": "nonpayable",
      "type": "function"
    },
    {
      "inputs": [
        {
          "internalType": "address",
          "name": "owner",
          "type": "address"
        }
      ],
      "name": "balanceOf",
      "outputs": [
        {
          "internalType": "uint256",
          "name": "",
          "type": "uint256"
        }
      ],
      "stateMutability": "view",
      "type": "function"
    },
    {
      "inputs": [
        {
          "internalType": "uint256",
          "name": "tokenId",
          "type": "uint256"
        }
      ],
      "name": "getApproved",
      "outputs": [
        {
          "internalType": "address",
          "name": "",
          "type": "address"
        }
      ],
      "stateMutability": "view",
      "type": "function"
    },
    {
      "inputs": [
        {
          "internalType": "uint256",
          "name": "_artId",
          "type": "uint256"
        }
      ],
      "name": "getArtPiece",
      "outputs": [
        {
          "components": [
            {
              "internalType": "uint256",
              "name": "id",
              "type": "uint256"
            },
            {
              "internalType": "uint256",
              "name": "mintDate",
              "type": "uint256"
            },
            {
              "internalType": "address",
              "name": "winner",
              "type": "address"
            },
            {
              "internalType": "address",
              "name": "artistDonation",
              "type": "address"
            },
            {
              "internalType": "uint256",
              "name": "donationCount",
              "type": "uint256"
            }
          ],
          "internalType": "struct CommunityArtCollection.Art",
          "name": "",
          "type": "tuple"
        }
      ],
      "stateMutability": "view",
      "type": "function"
    },
    {
      "inputs": [],
      "name": "getCollection",
      "outputs": [
        {
          "components": [
            {
              "internalType": "uint256",
              "name": "id",
              "type": "uint256"
            },
            {
              "internalType": "uint256",
              "name": "mintDate",
              "type": "uint256"
            },
            {
              "internalType": "address",
              "name": "winner",
              "type": "address"
            },
            {
              "internalType": "address",
              "name": "artistDonation",
              "type": "address"
            },
            {
              "internalType": "uint256",
              "name": "donationCount",
              "type": "uint256"
            }
          ],
          "internalType": "struct CommunityArtCollection.Art[]",
          "name": "",
          "type": "tuple[]"
        }
      ],
      "stateMutability": "view",
      "type": "function"
    },
    {
      "inputs": [],
      "name": "getWinners",
      "outputs": [
        {
          "internalType": "address[]",
          "name": "",
          "type": "address[]"
        }
      ],
      "stateMutability": "view",
      "type": "function"
    },
    {
      "inputs": [
        {
          "internalType": "address",
          "name": "owner",
          "type": "address"
        },
        {
          "internalType": "address",
          "name": "operator",
          "type": "address"
        }
      ],
      "name": "isApprovedForAll",
      "outputs": [
        {
          "internalType": "bool",
          "name": "",
          "type": "bool"
        }
      ],
      "stateMutability": "view",
      "type": "function"
    },
    {
      "inputs": [],
      "name": "name",
      "outputs": [
        {
          "internalType": "string",
          "name": "",
          "type": "string"
        }
      ],
      "stateMutability": "view",
      "type": "function"
    },
    {
      "inputs": [],
      "name": "owner",
      "outputs": [
        {
          "internalType": "address",
          "name": "",
          "type": "address"
        }
      ],
      "stateMutability": "view",
      "type": "function"
    },
    {
      "inputs": [
        {
          "internalType": "uint256",
          "name": "tokenId",
          "type": "uint256"
        }
      ],
      "name": "ownerOf",
      "outputs": [
        {
          "internalType": "address",
          "name": "",
          "type": "address"
        }
      ],
      "stateMutability": "view",
      "type": "function"
    },
    {
      "inputs": [],
      "name": "pauseMinting",
      "outputs": [],
      "stateMutability": "nonpayable",
      "type": "function"
    },
    {
      "inputs": [],
      "name": "paused",
      "outputs": [
        {
          "internalType": "bool",
          "name": "",
          "type": "bool"
        }
      ],
      "stateMutability": "view",
      "type": "function"
    },
    {
      "inputs": [],
      "name": "renounceOwnership",
      "outputs": [],
      "stateMutability": "nonpayable",
      "type": "function"
    },
    {
      "inputs": [
        {
          "internalType": "address",
          "name": "_winner",
          "type": "address"
        },
        {
          "internalType": "address",
          "name": "_artist",
          "type": "address"
        }
      ],
      "name": "reward",
      "outputs": [],
      "stateMutability": "nonpayable",
      "type": "function"
    },
    {
      "inputs": [
        {
          "internalType": "address",
          "name": "from",
          "type": "address"
        },
        {
          "internalType": "address",
          "name": "to",
          "type": "address"
        },
        {
          "internalType": "uint256",
          "name": "tokenId",
          "type": "uint256"
        }
      ],
      "name": "safeTransferFrom",
      "outputs": [],
      "stateMutability": "nonpayable",
      "type": "function"
    },
    {
      "inputs": [
        {
          "internalType": "address",
          "name": "from",
          "type": "address"
        },
        {
          "internalType": "address",
          "name": "to",
          "type": "address"
        },
        {
          "internalType": "uint256",
          "name": "tokenId",
          "type": "uint256"
        },
        {
          "internalType": "bytes",
          "name": "_data",
          "type": "bytes"
        }
      ],
      "name": "safeTransferFrom",
      "outputs": [],
      "stateMutability": "nonpayable",
      "type": "function"
    },
    {
      "inputs": [
        {
          "internalType": "address",
          "name": "operator",
          "type": "address"
        },
        {
          "internalType": "bool",
          "name": "approved",
          "type": "bool"
        }
      ],
      "name": "setApprovalForAll",
      "outputs": [],
      "stateMutability": "nonpayable",
      "type": "function"
    },
    {
      "inputs": [
        {
          "internalType": "string",
          "name": "baseURI",
          "type": "string"
        }
      ],
      "name": "setBaseURI",
      "outputs": [],
      "stateMutability": "nonpayable",
      "type": "function"
    },
    {
      "inputs": [
        {
          "internalType": "bytes4",
          "name": "interfaceId",
          "type": "bytes4"
        }
      ],
      "name": "supportsInterface",
      "outputs": [
        {
          "internalType": "bool",
          "name": "",
          "type": "bool"
        }
      ],
      "stateMutability": "view",
      "type": "function"
    },
    {
      "inputs": [],
      "name": "symbol",
      "outputs": [
        {
          "internalType": "string",
          "name": "",
          "type": "string"
        }
      ],
      "stateMutability": "view",
      "type": "function"
    },
    {
      "inputs": [
        {
          "internalType": "uint256",
          "name": "index",
          "type": "uint256"
        }
      ],
      "name": "tokenByIndex",
      "outputs": [
        {
          "internalType": "uint256",
          "name": "",
          "type": "uint256"
        }
      ],
      "stateMutability": "view",
      "type": "function"
    },
    {
      "inputs": [
        {
          "internalType": "address",
          "name": "owner",
          "type": "address"
        },
        {
          "internalType": "uint256",
          "name": "index",
          "type": "uint256"
        }
      ],
      "name": "tokenOfOwnerByIndex",
      "outputs": [
        {
          "internalType": "uint256",
          "name": "",
          "type": "uint256"
        }
      ],
      "stateMutability": "view",
      "type": "function"
    },
    {
      "inputs": [
        {
          "internalType": "uint256",
          "name": "tokenId",
          "type": "uint256"
        }
      ],
      "name": "tokenURI",
      "outputs": [
        {
          "internalType": "string",
          "name": "",
          "type": "string"
        }
      ],
      "stateMutability": "view",
      "type": "function"
    },
    {
      "inputs": [],
      "name": "totalSupply",
      "outputs": [
        {
          "internalType": "uint256",
          "name": "",
          "type": "uint256"
        }
      ],
      "stateMutability": "view",
      "type": "function"
    },
    {
      "inputs": [
        {
          "internalType": "address",
          "name": "from",
          "type": "address"
        },
        {
          "internalType": "address",
          "name": "to",
          "type": "address"
        },
        {
          "internalType": "uint256",
          "name": "tokenId",
          "type": "uint256"
        }
      ],
      "name": "transferFrom",
      "outputs": [],
      "stateMutability": "nonpayable",
      "type": "function"
    },
    {
      "inputs": [
        {
          "internalType": "address",
          "name": "newOwner",
          "type": "address"
        }
      ],
      "name": "transferOwnership",
      "outputs": [],
      "stateMutability": "nonpayable",
      "type": "function"
    },
    {
      "inputs": [],
      "name": "unpauseMinting",
      "outputs": [],
      "stateMutability": "nonpayable",
      "type": "function"
    }
  ],
  "bytecode": "0x60806040523480156200001157600080fd5b506040516200508438038062005084833981810160405281019062000037919062000312565b6040518060600160405280602581526020016200505f602591396040518060400160405280600581526020017f444443414300000000000000000000000000000000000000000000000000000081525081600090805190602001906200009f929190620001e4565b508060019080519060200190620000b8929190620001e4565b505050620000db620000cf6200011660201b60201c565b6200011e60201b60201c565b6000600a60146101000a81548160ff02191690831515021790555080600c90805190602001906200010e929190620001e4565b5050620004e7565b600033905090565b6000600a60009054906101000a900473ffffffffffffffffffffffffffffffffffffffff16905081600a60006101000a81548173ffffffffffffffffffffffffffffffffffffffff021916908373ffffffffffffffffffffffffffffffffffffffff1602179055508173ffffffffffffffffffffffffffffffffffffffff168173ffffffffffffffffffffffffffffffffffffffff167f8be0079c531659141344cd1fd0a4f28419497f9722a3daafe3b4186f6b6457e060405160405180910390a35050565b828054620001f290620003f8565b90600052602060002090601f01602090048101928262000216576000855562000262565b82601f106200023157805160ff191683800117855562000262565b8280016001018555821562000262579182015b828111156200026157825182559160200191906001019062000244565b5b50905062000271919062000275565b5090565b5b808211156200029057600081600090555060010162000276565b5090565b6000620002ab620002a5846200038c565b62000363565b905082815260208101848484011115620002ca57620002c9620004c7565b5b620002d7848285620003c2565b509392505050565b600082601f830112620002f757620002f6620004c2565b5b81516200030984826020860162000294565b91505092915050565b6000602082840312156200032b576200032a620004d1565b5b600082015167ffffffffffffffff8111156200034c576200034b620004cc565b5b6200035a84828501620002df565b91505092915050565b60006200036f62000382565b90506200037d82826200042e565b919050565b6000604051905090565b600067ffffffffffffffff821115620003aa57620003a962000493565b5b620003b582620004d6565b9050602081019050919050565b60005b83811015620003e2578082015181840152602081019050620003c5565b83811115620003f2576000848401525b50505050565b600060028204905060018216806200041157607f821691505b6020821081141562000428576200042762000464565b5b50919050565b6200043982620004d6565b810181811067ffffffffffffffff821117156200045b576200045a62000493565b5b80604052505050565b7f4e487b7100000000000000000000000000000000000000000000000000000000600052602260045260246000fd5b7f4e487b7100000000000000000000000000000000000000000000000000000000600052604160045260246000fd5b600080fd5b600080fd5b600080fd5b600080fd5b6000601f19601f8301169050919050565b614b6880620004f76000396000f3fe6080604052600436106101cd5760003560e01c80635c975abb116100f7578063a22cb46511610095578063da8fbf2a11610064578063da8fbf2a14610679578063df15c37e14610690578063e985e9c5146106bb578063f2fde38b146106f8576101cd565b8063a22cb465146105d3578063ae200322146105fc578063b88d4fde14610613578063c87b56dd1461063c576101cd565b8063715018a6116100d1578063715018a61461053d5780638da5cb5b1461055457806391dc1b051461057f57806395d89b41146105a8576101cd565b80635c975abb146104985780636352211e146104c357806370a0823114610500576101cd565b80632e03e4681161016f57806342842e0e1161013e57806342842e0e146103e05780634d5b0081146104095780634f6ccce71461043257806355f804b31461046f576101cd565b80632e03e468146103105780632f745c591461034d5780633e1e5c891461038a5780634251921e146103b5576101cd565b8063081812fc116101ab578063081812fc14610256578063095ea7b31461029357806318160ddd146102bc57806323b872dd146102e7576101cd565b806301ffc9a7146101d257806305b045981461020f57806306fdde031461022b575b600080fd5b3480156101de57600080fd5b506101f960048036038101906101f49190613472565b610721565b6040516102069190613cbd565b60405180910390f35b61022960048036038101906102249190613515565b610803565b005b34801561023757600080fd5b506102406108f2565b60405161024d9190613cd8565b60405180910390f35b34801561026257600080fd5b5061027d60048036038101906102789190613515565b610984565b60405161028a9190613bc0565b60405180910390f35b34801561029f57600080fd5b506102ba60048036038101906102b59190613405565b610a09565b005b3480156102c857600080fd5b506102d1610b21565b6040516102de9190613fd5565b60405180910390f35b3480156102f357600080fd5b5061030e600480360381019061030991906132ef565b610b2e565b005b34801561031c57600080fd5b5061033760048036038101906103329190613515565b610b8e565b6040516103449190613fba565b60405180910390f35b34801561035957600080fd5b50610374600480360381019061036f9190613405565b610c85565b6040516103819190613fd5565b60405180910390f35b34801561039657600080fd5b5061039f610d2a565b6040516103ac9190613fd5565b60405180910390f35b3480156103c157600080fd5b506103ca610d36565b6040516103d79190613c9b565b60405180910390f35b3480156103ec57600080fd5b50610407600480360381019061040291906132ef565b610ed0565b005b34801561041557600080fd5b50610430600480360381019061042b91906132af565b610ef0565b005b34801561043e57600080fd5b5061045960048036038101906104549190613515565b6110f1565b6040516104669190613fd5565b60405180910390f35b34801561047b57600080fd5b50610496600480360381019061049191906134cc565b611162565b005b3480156104a457600080fd5b506104ad6111f8565b6040516104ba9190613cbd565b60405180910390f35b3480156104cf57600080fd5b506104ea60048036038101906104e59190613515565b61120f565b6040516104f79190613bc0565b60405180910390f35b34801561050c57600080fd5b5061052760048036038101906105229190613282565b6112c1565b6040516105349190613fd5565b60405180910390f35b34801561054957600080fd5b50610552611379565b005b34801561056057600080fd5b50610569611401565b6040516105769190613bc0565b60405180910390f35b34801561058b57600080fd5b506105a660048036038101906105a1919061356f565b61142b565b005b3480156105b457600080fd5b506105bd61171d565b6040516105ca9190613cd8565b60405180910390f35b3480156105df57600080fd5b506105fa60048036038101906105f591906133c5565b6117af565b005b34801561060857600080fd5b506106116117c5565b005b34801561061f57600080fd5b5061063a60048036038101906106359190613342565b61184b565b005b34801561064857600080fd5b50610663600480360381019061065e9190613515565b6118ad565b6040516106709190613cd8565b60405180910390f35b34801561068557600080fd5b5061068e6118e7565b005b34801561069c57600080fd5b506106a561196d565b6040516106b29190613c79565b60405180910390f35b3480156106c757600080fd5b506106e260048036038101906106dd91906132af565b611a21565b6040516106ef9190613cbd565b60405180910390f35b34801561070457600080fd5b5061071f600480360381019061071a9190613282565b611ab5565b005b60007f80ac58cd000000000000000000000000000000000000000000000000000000007bffffffffffffffffffffffffffffffffffffffffffffffffffffffff1916827bffffffffffffffffffffffffffffffffffffffffffffffffffffffff191614806107ec57507f5b5e139f000000000000000000000000000000000000000000000000000000007bffffffffffffffffffffffffffffffffffffffffffffffffffffffff1916827bffffffffffffffffffffffffffffffffffffffffffffffffffffffff1916145b806107fc57506107fb82611bad565b5b9050919050565b60003411610846576040517f08c379a000000000000000000000000000000000000000000000000000000000815260040161083d90613f3a565b60405180910390fd5b600d600082815260200190815260200160002060030160009054906101000a900473ffffffffffffffffffffffffffffffffffffffff1673ffffffffffffffffffffffffffffffffffffffff166108fc349081150290604051600060405180830381858888f193505050501580156108c2573d6000803e3d6000fd5b50600d600082815260200190815260200160002060040160008154809291906108ea9061435a565b919050555050565b606060008054610901906142f7565b80601f016020809104026020016040519081016040528092919081815260200182805461092d906142f7565b801561097a5780601f1061094f5761010080835404028352916020019161097a565b820191906000526020600020905b81548152906001019060200180831161095d57829003601f168201915b5050505050905090565b600061098f82611c27565b6109ce576040517f08c379a00000000000000000000000000000000000000000000000000000000081526004016109c590613efa565b60405180910390fd5b6004600083815260200190815260200160002060009054906101000a900473ffffffffffffffffffffffffffffffffffffffff169050919050565b6000610a148261120f565b90508073ffffffffffffffffffffffffffffffffffffffff168373ffffffffffffffffffffffffffffffffffffffff161415610a85576040517f08c379a0000000000000000000000000000000000000000000000000000000008152600401610a7c90613f5a565b60405180910390fd5b8073ffffffffffffffffffffffffffffffffffffffff16610aa4611c93565b73ffffffffffffffffffffffffffffffffffffffff161480610ad35750610ad281610acd611c93565b611a21565b5b610b12576040517f08c379a0000000000000000000000000000000000000000000000000000000008152600401610b0990613e7a565b60405180910390fd5b610b1c8383611c9b565b505050565b6000600880549050905090565b610b3f610b39611c93565b82611d54565b610b7e576040517f08c379a0000000000000000000000000000000000000000000000000000000008152600401610b7590613f7a565b60405180910390fd5b610b89838383611e32565b505050565b610b96613011565b600d60008381526020019081526020016000206040518060a001604052908160008201548152602001600182015481526020016002820160009054906101000a900473ffffffffffffffffffffffffffffffffffffffff1673ffffffffffffffffffffffffffffffffffffffff1673ffffffffffffffffffffffffffffffffffffffff1681526020016003820160009054906101000a900473ffffffffffffffffffffffffffffffffffffffff1673ffffffffffffffffffffffffffffffffffffffff1673ffffffffffffffffffffffffffffffffffffffff1681526020016004820154815250509050919050565b6000610c90836112c1565b8210610cd1576040517f08c379a0000000000000000000000000000000000000000000000000000000008152600401610cc890613d3a565b60405180910390fd5b600660008473ffffffffffffffffffffffffffffffffffffffff1673ffffffffffffffffffffffffffffffffffffffff168152602001908152602001600020600083815260200190815260200160002054905092915050565b600b8060000154905081565b60606000610d42610b21565b67ffffffffffffffff811115610d5b57610d5a6144bf565b5b604051908082528060200260200182016040528015610d9457816020015b610d81613011565b815260200190600190039081610d795790505b50905060005b610da2610b21565b811015610ec8576000600d60008381526020019081526020016000209050806040518060a001604052908160008201548152602001600182015481526020016002820160009054906101000a900473ffffffffffffffffffffffffffffffffffffffff1673ffffffffffffffffffffffffffffffffffffffff1673ffffffffffffffffffffffffffffffffffffffff1681526020016003820160009054906101000a900473ffffffffffffffffffffffffffffffffffffffff1673ffffffffffffffffffffffffffffffffffffffff1673ffffffffffffffffffffffffffffffffffffffff168152602001600482015481525050838381518110610ea957610ea8614490565b5b6020026020010181905250508080610ec09061435a565b915050610d9a565b508091505090565b610eeb8383836040518060200160405280600081525061184b565b505050565b610ef86111f8565b15610f38576040517f08c379a0000000000000000000000000000000000000000000000000000000008152600401610f2f90613e5a565b60405180910390fd5b610f40611c93565b73ffffffffffffffffffffffffffffffffffffffff16610f5e611401565b73ffffffffffffffffffffffffffffffffffffffff1614610fb4576040517f08c379a0000000000000000000000000000000000000000000000000000000008152600401610fab90613f1a565b60405180910390fd5b6000610fc0600b612099565b90506040518060a001604052808281526020014281526020018473ffffffffffffffffffffffffffffffffffffffff1681526020018373ffffffffffffffffffffffffffffffffffffffff1681526020016000815250600d6000838152602001908152602001600020600082015181600001556020820151816001015560408201518160020160006101000a81548173ffffffffffffffffffffffffffffffffffffffff021916908373ffffffffffffffffffffffffffffffffffffffff16021790555060608201518160030160006101000a81548173ffffffffffffffffffffffffffffffffffffffff021916908373ffffffffffffffffffffffffffffffffffffffff160217905550608082015181600401559050506110e283826120a7565b6110ec600b6120c5565b505050565b60006110fb610b21565b821061113c576040517f08c379a000000000000000000000000000000000000000000000000000000000815260040161113390613f9a565b60405180910390fd5b600882815481106111505761114f614490565b5b90600052602060002001549050919050565b61116a611c93565b73ffffffffffffffffffffffffffffffffffffffff16611188611401565b73ffffffffffffffffffffffffffffffffffffffff16146111de576040517f08c379a00000000000000000000000000000000000000000000000000000000081526004016111d590613f1a565b60405180910390fd5b80600c90805190602001906111f492919061306c565b5050565b6000600a60149054906101000a900460ff16905090565b6000806002600084815260200190815260200160002060009054906101000a900473ffffffffffffffffffffffffffffffffffffffff169050600073ffffffffffffffffffffffffffffffffffffffff168173ffffffffffffffffffffffffffffffffffffffff1614156112b8576040517f08c379a00000000000000000000000000000000000000000000000000000000081526004016112af90613eba565b60405180910390fd5b80915050919050565b60008073ffffffffffffffffffffffffffffffffffffffff168273ffffffffffffffffffffffffffffffffffffffff161415611332576040517f08c379a000000000000000000000000000000000000000000000000000000000815260040161132990613e9a565b60405180910390fd5b600360008373ffffffffffffffffffffffffffffffffffffffff1673ffffffffffffffffffffffffffffffffffffffff168152602001908152602001600020549050919050565b611381611c93565b73ffffffffffffffffffffffffffffffffffffffff1661139f611401565b73ffffffffffffffffffffffffffffffffffffffff16146113f5576040517f08c379a00000000000000000000000000000000000000000000000000000000081526004016113ec90613f1a565b60405180910390fd5b6113ff60006120db565b565b6000600a60009054906101000a900473ffffffffffffffffffffffffffffffffffffffff16905090565b6000811161146e576040517f08c379a000000000000000000000000000000000000000000000000000000000815260040161146590613f3a565b60405180910390fd5b670de0b6b3a76400008161148291906141b3565b90508173ffffffffffffffffffffffffffffffffffffffff166370a082316114a8611c93565b6040518263ffffffff1660e01b81526004016114c49190613bc0565b60206040518083038186803b1580156114dc57600080fd5b505afa1580156114f0573d6000803e3d6000fd5b505050506040513d601f19601f820116820180604052508101906115149190613542565b8111611555576040517f08c379a000000000000000000000000000000000000000000000000000000000815260040161154c90613d1a565b60405180910390fd5b8173ffffffffffffffffffffffffffffffffffffffff1663dd62ed3e611579611c93565b306040518363ffffffff1660e01b8152600401611597929190613bdb565b60206040518083038186803b1580156115af57600080fd5b505afa1580156115c3573d6000803e3d6000fd5b505050506040513d601f19601f820116820180604052508101906115e79190613542565b8111611628576040517f08c379a000000000000000000000000000000000000000000000000000000000815260040161161f90613e1a565b60405180910390fd5b8173ffffffffffffffffffffffffffffffffffffffff1663a9059cbb600d600086815260200190815260200160002060030160009054906101000a900473ffffffffffffffffffffffffffffffffffffffff16836040518363ffffffff1660e01b8152600401611699929190613c50565b602060405180830381600087803b1580156116b357600080fd5b505af11580156116c7573d6000803e3d6000fd5b505050506040513d601f19601f820116820180604052508101906116eb9190613445565b50600d600084815260200190815260200160002060040160008154809291906117139061435a565b9190505550505050565b60606001805461172c906142f7565b80601f0160208091040260200160405190810160405280929190818152602001828054611758906142f7565b80156117a55780601f1061177a576101008083540402835291602001916117a5565b820191906000526020600020905b81548152906001019060200180831161178857829003601f168201915b5050505050905090565b6117c16117ba611c93565b83836121a1565b5050565b6117cd611c93565b73ffffffffffffffffffffffffffffffffffffffff166117eb611401565b73ffffffffffffffffffffffffffffffffffffffff1614611841576040517f08c379a000000000000000000000000000000000000000000000000000000000815260040161183890613f1a565b60405180910390fd5b61184961230e565b565b61185c611856611c93565b83611d54565b61189b576040517f08c379a000000000000000000000000000000000000000000000000000000000815260040161189290613f7a565b60405180910390fd5b6118a7848484846123b0565b50505050565b60606118b761240c565b6118c08361249e565b6040516020016118d1929190613b91565b6040516020818303038152906040529050919050565b6118ef611c93565b73ffffffffffffffffffffffffffffffffffffffff1661190d611401565b73ffffffffffffffffffffffffffffffffffffffff1614611963576040517f08c379a000000000000000000000000000000000000000000000000000000000815260040161195a90613f1a565b60405180910390fd5b61196b6125ff565b565b60608060005b61197b610b21565b811015611a1957600d600082815260200190815260200160002060020160009054906101000a900473ffffffffffffffffffffffffffffffffffffffff168282815181106119cc576119cb614490565b5b602002602001019073ffffffffffffffffffffffffffffffffffffffff16908173ffffffffffffffffffffffffffffffffffffffff16815250508080611a119061435a565b915050611973565b508091505090565b6000600560008473ffffffffffffffffffffffffffffffffffffffff1673ffffffffffffffffffffffffffffffffffffffff16815260200190815260200160002060008373ffffffffffffffffffffffffffffffffffffffff1673ffffffffffffffffffffffffffffffffffffffff16815260200190815260200160002060009054906101000a900460ff16905092915050565b611abd611c93565b73ffffffffffffffffffffffffffffffffffffffff16611adb611401565b73ffffffffffffffffffffffffffffffffffffffff1614611b31576040517f08c379a0000000000000000000000000000000000000000000000000000000008152600401611b2890613f1a565b60405180910390fd5b600073ffffffffffffffffffffffffffffffffffffffff168173ffffffffffffffffffffffffffffffffffffffff161415611ba1576040517f08c379a0000000000000000000000000000000000000000000000000000000008152600401611b9890613d7a565b60405180910390fd5b611baa816120db565b50565b60007f780e9d63000000000000000000000000000000000000000000000000000000007bffffffffffffffffffffffffffffffffffffffffffffffffffffffff1916827bffffffffffffffffffffffffffffffffffffffffffffffffffffffff19161480611c205750611c1f826126a2565b5b9050919050565b60008073ffffffffffffffffffffffffffffffffffffffff166002600084815260200190815260200160002060009054906101000a900473ffffffffffffffffffffffffffffffffffffffff1673ffffffffffffffffffffffffffffffffffffffff1614159050919050565b600033905090565b816004600083815260200190815260200160002060006101000a81548173ffffffffffffffffffffffffffffffffffffffff021916908373ffffffffffffffffffffffffffffffffffffffff160217905550808273ffffffffffffffffffffffffffffffffffffffff16611d0e8361120f565b73ffffffffffffffffffffffffffffffffffffffff167f8c5be1e5ebec7d5bd14f71427d1e84f3dd0314c0f7b2291e5b200ac8c7c3b92560405160405180910390a45050565b6000611d5f82611c27565b611d9e576040517f08c379a0000000000000000000000000000000000000000000000000000000008152600401611d9590613e3a565b60405180910390fd5b6000611da98361120f565b90508073ffffffffffffffffffffffffffffffffffffffff168473ffffffffffffffffffffffffffffffffffffffff161480611e1857508373ffffffffffffffffffffffffffffffffffffffff16611e0084610984565b73ffffffffffffffffffffffffffffffffffffffff16145b80611e295750611e288185611a21565b5b91505092915050565b8273ffffffffffffffffffffffffffffffffffffffff16611e528261120f565b73ffffffffffffffffffffffffffffffffffffffff1614611ea8576040517f08c379a0000000000000000000000000000000000000000000000000000000008152600401611e9f90613d9a565b60405180910390fd5b600073ffffffffffffffffffffffffffffffffffffffff168273ffffffffffffffffffffffffffffffffffffffff161415611f18576040517f08c379a0000000000000000000000000000000000000000000000000000000008152600401611f0f90613dda565b60405180910390fd5b611f23838383612784565b611f2e600082611c9b565b6001600360008573ffffffffffffffffffffffffffffffffffffffff1673ffffffffffffffffffffffffffffffffffffffff1681526020019081526020016000206000828254611f7e919061420d565b925050819055506001600360008473ffffffffffffffffffffffffffffffffffffffff1673ffffffffffffffffffffffffffffffffffffffff1681526020019081526020016000206000828254611fd5919061412c565b92505081905550816002600083815260200190815260200160002060006101000a81548173ffffffffffffffffffffffffffffffffffffffff021916908373ffffffffffffffffffffffffffffffffffffffff160217905550808273ffffffffffffffffffffffffffffffffffffffff168473ffffffffffffffffffffffffffffffffffffffff167fddf252ad1be2c89b69c2b068fc378daa952ba7f163c4a11628f55a4df523b3ef60405160405180910390a4612094838383612794565b505050565b600081600001549050919050565b6120c1828260405180602001604052806000815250612799565b5050565b6001816000016000828254019250508190555050565b6000600a60009054906101000a900473ffffffffffffffffffffffffffffffffffffffff16905081600a60006101000a81548173ffffffffffffffffffffffffffffffffffffffff021916908373ffffffffffffffffffffffffffffffffffffffff1602179055508173ffffffffffffffffffffffffffffffffffffffff168173ffffffffffffffffffffffffffffffffffffffff167f8be0079c531659141344cd1fd0a4f28419497f9722a3daafe3b4186f6b6457e060405160405180910390a35050565b8173ffffffffffffffffffffffffffffffffffffffff168373ffffffffffffffffffffffffffffffffffffffff161415612210576040517f08c379a000000000000000000000000000000000000000000000000000000000815260040161220790613dfa565b60405180910390fd5b80600560008573ffffffffffffffffffffffffffffffffffffffff1673ffffffffffffffffffffffffffffffffffffffff16815260200190815260200160002060008473ffffffffffffffffffffffffffffffffffffffff1673ffffffffffffffffffffffffffffffffffffffff16815260200190815260200160002060006101000a81548160ff0219169083151502179055508173ffffffffffffffffffffffffffffffffffffffff168373ffffffffffffffffffffffffffffffffffffffff167f17307eab39ab6107e8899845ad3d59bd9653f200f220920489ca2b5937696c31836040516123019190613cbd565b60405180910390a3505050565b6123166111f8565b612355576040517f08c379a000000000000000000000000000000000000000000000000000000000815260040161234c90613cfa565b60405180910390fd5b6000600a60146101000a81548160ff0219169083151502179055507f5db9ee0a495bf2e6ff9c91a7834c1ba4fdd244a5e8aa4e537bd38aeae4b073aa612399611c93565b6040516123a69190613bc0565b60405180910390a1565b6123bb848484611e32565b6123c7848484846127f4565b612406576040517f08c379a00000000000000000000000000000000000000000000000000000000081526004016123fd90613d5a565b60405180910390fd5b50505050565b6060600c805461241b906142f7565b80601f0160208091040260200160405190810160405280929190818152602001828054612447906142f7565b80156124945780601f1061246957610100808354040283529160200191612494565b820191906000526020600020905b81548152906001019060200180831161247757829003601f168201915b5050505050905090565b606060008214156124e6576040518060400160405280600181526020017f300000000000000000000000000000000000000000000000000000000000000081525090506125fa565b600082905060005b600082146125185780806125019061435a565b915050600a826125119190614182565b91506124ee565b60008167ffffffffffffffff811115612534576125336144bf565b5b6040519080825280601f01601f1916602001820160405280156125665781602001600182028036833780820191505090505b5090505b600085146125f35760018261257f919061420d565b9150600a8561258e91906143a3565b603061259a919061412c565b60f81b8183815181106125b0576125af614490565b5b60200101907effffffffffffffffffffffffffffffffffffffffffffffffffffffffffffff1916908160001a905350600a856125ec9190614182565b945061256a565b8093505050505b919050565b6126076111f8565b15612647576040517f08c379a000000000000000000000000000000000000000000000000000000000815260040161263e90613e5a565b60405180910390fd5b6001600a60146101000a81548160ff0219169083151502179055507f62e78cea01bee320cd4e420270b5ea74000d11b0c9f74754ebdbfc544b05a25861268b611c93565b6040516126989190613bc0565b60405180910390a1565b60007f80ac58cd000000000000000000000000000000000000000000000000000000007bffffffffffffffffffffffffffffffffffffffffffffffffffffffff1916827bffffffffffffffffffffffffffffffffffffffffffffffffffffffff1916148061276d57507f5b5e139f000000000000000000000000000000000000000000000000000000007bffffffffffffffffffffffffffffffffffffffffffffffffffffffff1916827bffffffffffffffffffffffffffffffffffffffffffffffffffffffff1916145b8061277d575061277c8261298b565b5b9050919050565b61278f8383836129f5565b505050565b505050565b6127a38383612b09565b6127b060008484846127f4565b6127ef576040517f08c379a00000000000000000000000000000000000000000000000000000000081526004016127e690613d5a565b60405180910390fd5b505050565b60006128158473ffffffffffffffffffffffffffffffffffffffff16612ce3565b1561297e578373ffffffffffffffffffffffffffffffffffffffff1663150b7a0261283e611c93565b8786866040518563ffffffff1660e01b81526004016128609493929190613c04565b602060405180830381600087803b15801561287a57600080fd5b505af19250505080156128ab57506040513d601f19601f820116820180604052508101906128a8919061349f565b60015b61292e573d80600081146128db576040519150601f19603f3d011682016040523d82523d6000602084013e6128e0565b606091505b50600081511415612926576040517f08c379a000000000000000000000000000000000000000000000000000000000815260040161291d90613d5a565b60405180910390fd5b805181602001fd5b63150b7a0260e01b7bffffffffffffffffffffffffffffffffffffffffffffffffffffffff1916817bffffffffffffffffffffffffffffffffffffffffffffffffffffffff191614915050612983565b600190505b949350505050565b60007f01ffc9a7000000000000000000000000000000000000000000000000000000007bffffffffffffffffffffffffffffffffffffffffffffffffffffffff1916827bffffffffffffffffffffffffffffffffffffffffffffffffffffffff1916149050919050565b612a00838383612d06565b600073ffffffffffffffffffffffffffffffffffffffff168373ffffffffffffffffffffffffffffffffffffffff161415612a4357612a3e81612d0b565b612a82565b8173ffffffffffffffffffffffffffffffffffffffff168373ffffffffffffffffffffffffffffffffffffffff1614612a8157612a808382612d54565b5b5b600073ffffffffffffffffffffffffffffffffffffffff168273ffffffffffffffffffffffffffffffffffffffff161415612ac557612ac081612ec1565b612b04565b8273ffffffffffffffffffffffffffffffffffffffff168273ffffffffffffffffffffffffffffffffffffffff1614612b0357612b028282612f92565b5b5b505050565b600073ffffffffffffffffffffffffffffffffffffffff168273ffffffffffffffffffffffffffffffffffffffff161415612b79576040517f08c379a0000000000000000000000000000000000000000000000000000000008152600401612b7090613eda565b60405180910390fd5b612b8281611c27565b15612bc2576040517f08c379a0000000000000000000000000000000000000000000000000000000008152600401612bb990613dba565b60405180910390fd5b612bce60008383612784565b6001600360008473ffffffffffffffffffffffffffffffffffffffff1673ffffffffffffffffffffffffffffffffffffffff1681526020019081526020016000206000828254612c1e919061412c565b92505081905550816002600083815260200190815260200160002060006101000a81548173ffffffffffffffffffffffffffffffffffffffff021916908373ffffffffffffffffffffffffffffffffffffffff160217905550808273ffffffffffffffffffffffffffffffffffffffff16600073ffffffffffffffffffffffffffffffffffffffff167fddf252ad1be2c89b69c2b068fc378daa952ba7f163c4a11628f55a4df523b3ef60405160405180910390a4612cdf60008383612794565b5050565b6000808273ffffffffffffffffffffffffffffffffffffffff163b119050919050565b505050565b6008805490506009600083815260200190815260200160002081905550600881908060018154018082558091505060019003906000526020600020016000909190919091505550565b60006001612d61846112c1565b612d6b919061420d565b9050600060076000848152602001908152602001600020549050818114612e50576000600660008673ffffffffffffffffffffffffffffffffffffffff1673ffffffffffffffffffffffffffffffffffffffff168152602001908152602001600020600084815260200190815260200160002054905080600660008773ffffffffffffffffffffffffffffffffffffffff1673ffffffffffffffffffffffffffffffffffffffff168152602001908152602001600020600084815260200190815260200160002081905550816007600083815260200190815260200160002081905550505b6007600084815260200190815260200160002060009055600660008573ffffffffffffffffffffffffffffffffffffffff1673ffffffffffffffffffffffffffffffffffffffff16815260200190815260200160002060008381526020019081526020016000206000905550505050565b60006001600880549050612ed5919061420d565b9050600060096000848152602001908152602001600020549050600060088381548110612f0557612f04614490565b5b906000526020600020015490508060088381548110612f2757612f26614490565b5b906000526020600020018190555081600960008381526020019081526020016000208190555060096000858152602001908152602001600020600090556008805480612f7657612f75614461565b5b6001900381819060005260206000200160009055905550505050565b6000612f9d836112c1565b905081600660008573ffffffffffffffffffffffffffffffffffffffff1673ffffffffffffffffffffffffffffffffffffffff168152602001908152602001600020600083815260200190815260200160002081905550806007600084815260200190815260200160002081905550505050565b6040518060a001604052806000815260200160008152602001600073ffffffffffffffffffffffffffffffffffffffff168152602001600073ffffffffffffffffffffffffffffffffffffffff168152602001600081525090565b828054613078906142f7565b90600052602060002090601f01602090048101928261309a57600085556130e1565b82601f106130b357805160ff19168380011785556130e1565b828001600101855582156130e1579182015b828111156130e05782518255916020019190600101906130c5565b5b5090506130ee91906130f2565b5090565b5b8082111561310b5760008160009055506001016130f3565b5090565b600061312261311d84614015565b613ff0565b90508281526020810184848401111561313e5761313d6144f3565b5b6131498482856142b5565b509392505050565b600061316461315f84614046565b613ff0565b9050828152602081018484840111156131805761317f6144f3565b5b61318b8482856142b5565b509392505050565b6000813590506131a281614ad6565b92915050565b6000813590506131b781614aed565b92915050565b6000815190506131cc81614aed565b92915050565b6000813590506131e181614b04565b92915050565b6000815190506131f681614b04565b92915050565b600082601f830112613211576132106144ee565b5b813561322184826020860161310f565b91505092915050565b600082601f83011261323f5761323e6144ee565b5b813561324f848260208601613151565b91505092915050565b60008135905061326781614b1b565b92915050565b60008151905061327c81614b1b565b92915050565b600060208284031215613298576132976144fd565b5b60006132a684828501613193565b91505092915050565b600080604083850312156132c6576132c56144fd565b5b60006132d485828601613193565b92505060206132e585828601613193565b9150509250929050565b600080600060608486031215613308576133076144fd565b5b600061331686828701613193565b935050602061332786828701613193565b925050604061333886828701613258565b9150509250925092565b6000806000806080858703121561335c5761335b6144fd565b5b600061336a87828801613193565b945050602061337b87828801613193565b935050604061338c87828801613258565b925050606085013567ffffffffffffffff8111156133ad576133ac6144f8565b5b6133b9878288016131fc565b91505092959194509250565b600080604083850312156133dc576133db6144fd565b5b60006133ea85828601613193565b92505060206133fb858286016131a8565b9150509250929050565b6000806040838503121561341c5761341b6144fd565b5b600061342a85828601613193565b925050602061343b85828601613258565b9150509250929050565b60006020828403121561345b5761345a6144fd565b5b6000613469848285016131bd565b91505092915050565b600060208284031215613488576134876144fd565b5b6000613496848285016131d2565b91505092915050565b6000602082840312156134b5576134b46144fd565b5b60006134c3848285016131e7565b91505092915050565b6000602082840312156134e2576134e16144fd565b5b600082013567ffffffffffffffff811115613500576134ff6144f8565b5b61350c8482850161322a565b91505092915050565b60006020828403121561352b5761352a6144fd565b5b600061353984828501613258565b91505092915050565b600060208284031215613558576135576144fd565b5b60006135668482850161326d565b91505092915050565b600080600060608486031215613588576135876144fd565b5b600061359686828701613258565b93505060206135a786828701613193565b92505060406135b886828701613258565b9150509250925092565b60006135ce83836135f2565b60208301905092915050565b60006135e68383613aa3565b60a08301905092915050565b6135fb81614241565b82525050565b61360a81614241565b82525050565b600061361b82614097565b61362581856140dd565b935061363083614077565b8060005b8381101561366157815161364888826135c2565b9750613653836140c3565b925050600181019050613634565b5085935050505092915050565b6000613679826140a2565b61368381856140ee565b935061368e83614087565b8060005b838110156136bf5781516136a688826135da565b97506136b1836140d0565b925050600181019050613692565b5085935050505092915050565b6136d581614253565b82525050565b60006136e6826140ad565b6136f081856140ff565b93506137008185602086016142c4565b61370981614502565b840191505092915050565b600061371f826140b8565b6137298185614110565b93506137398185602086016142c4565b61374281614502565b840191505092915050565b6000613758826140b8565b6137628185614121565b93506137728185602086016142c4565b80840191505092915050565b600061378b601483614110565b915061379682614513565b602082019050919050565b60006137ae603083614110565b91506137b98261453c565b604082019050919050565b60006137d1602b83614110565b91506137dc8261458b565b604082019050919050565b60006137f4603283614110565b91506137ff826145da565b604082019050919050565b6000613817602683614110565b915061382282614629565b604082019050919050565b600061383a602583614110565b915061384582614678565b604082019050919050565b600061385d601c83614110565b9150613868826146c7565b602082019050919050565b6000613880602483614110565b915061388b826146f0565b604082019050919050565b60006138a3601983614110565b91506138ae8261473f565b602082019050919050565b60006138c6601b83614110565b91506138d182614768565b602082019050919050565b60006138e9602c83614110565b91506138f482614791565b604082019050919050565b600061390c601083614110565b9150613917826147e0565b602082019050919050565b600061392f603883614110565b915061393a82614809565b604082019050919050565b6000613952602a83614110565b915061395d82614858565b604082019050919050565b6000613975602983614110565b9150613980826148a7565b604082019050919050565b6000613998602083614110565b91506139a3826148f6565b602082019050919050565b60006139bb602c83614110565b91506139c68261491f565b604082019050919050565b60006139de600583614121565b91506139e98261496e565b600582019050919050565b6000613a01602083614110565b9150613a0c82614997565b602082019050919050565b6000613a24602083614110565b9150613a2f826149c0565b602082019050919050565b6000613a47602183614110565b9150613a52826149e9565b604082019050919050565b6000613a6a603183614110565b9150613a7582614a38565b604082019050919050565b6000613a8d602c83614110565b9150613a9882614a87565b604082019050919050565b60a082016000820151613ab96000850182613b73565b506020820151613acc6020850182613b73565b506040820151613adf60408501826135f2565b506060820151613af260608501826135f2565b506080820151613b056080850182613b73565b50505050565b60a082016000820151613b216000850182613b73565b506020820151613b346020850182613b73565b506040820151613b4760408501826135f2565b506060820151613b5a60608501826135f2565b506080820151613b6d6080850182613b73565b50505050565b613b7c816142ab565b82525050565b613b8b816142ab565b82525050565b6000613b9d828561374d565b9150613ba9828461374d565b9150613bb4826139d1565b91508190509392505050565b6000602082019050613bd56000830184613601565b92915050565b6000604082019050613bf06000830185613601565b613bfd6020830184613601565b9392505050565b6000608082019050613c196000830187613601565b613c266020830186613601565b613c336040830185613b82565b8181036060830152613c4581846136db565b905095945050505050565b6000604082019050613c656000830185613601565b613c726020830184613b82565b9392505050565b60006020820190508181036000830152613c938184613610565b905092915050565b60006020820190508181036000830152613cb5818461366e565b905092915050565b6000602082019050613cd260008301846136cc565b92915050565b60006020820190508181036000830152613cf28184613714565b905092915050565b60006020820190508181036000830152613d138161377e565b9050919050565b60006020820190508181036000830152613d33816137a1565b9050919050565b60006020820190508181036000830152613d53816137c4565b9050919050565b60006020820190508181036000830152613d73816137e7565b9050919050565b60006020820190508181036000830152613d938161380a565b9050919050565b60006020820190508181036000830152613db38161382d565b9050919050565b60006020820190508181036000830152613dd381613850565b9050919050565b60006020820190508181036000830152613df381613873565b9050919050565b60006020820190508181036000830152613e1381613896565b9050919050565b60006020820190508181036000830152613e33816138b9565b9050919050565b60006020820190508181036000830152613e53816138dc565b9050919050565b60006020820190508181036000830152613e73816138ff565b9050919050565b60006020820190508181036000830152613e9381613922565b9050919050565b60006020820190508181036000830152613eb381613945565b9050919050565b60006020820190508181036000830152613ed381613968565b9050919050565b60006020820190508181036000830152613ef38161398b565b9050919050565b60006020820190508181036000830152613f13816139ae565b9050919050565b60006020820190508181036000830152613f33816139f4565b9050919050565b60006020820190508181036000830152613f5381613a17565b9050919050565b60006020820190508181036000830152613f7381613a3a565b9050919050565b60006020820190508181036000830152613f9381613a5d565b9050919050565b60006020820190508181036000830152613fb381613a80565b9050919050565b600060a082019050613fcf6000830184613b0b565b92915050565b6000602082019050613fea6000830184613b82565b92915050565b6000613ffa61400b565b90506140068282614329565b919050565b6000604051905090565b600067ffffffffffffffff8211156140305761402f6144bf565b5b61403982614502565b9050602081019050919050565b600067ffffffffffffffff821115614061576140606144bf565b5b61406a82614502565b9050602081019050919050565b6000819050602082019050919050565b6000819050602082019050919050565b600081519050919050565b600081519050919050565b600081519050919050565b600081519050919050565b6000602082019050919050565b6000602082019050919050565b600082825260208201905092915050565b600082825260208201905092915050565b600082825260208201905092915050565b600082825260208201905092915050565b600081905092915050565b6000614137826142ab565b9150614142836142ab565b9250827fffffffffffffffffffffffffffffffffffffffffffffffffffffffffffffffff03821115614177576141766143d4565b5b828201905092915050565b600061418d826142ab565b9150614198836142ab565b9250826141a8576141a7614403565b5b828204905092915050565b60006141be826142ab565b91506141c9836142ab565b9250817fffffffffffffffffffffffffffffffffffffffffffffffffffffffffffffffff0483118215151615614202576142016143d4565b5b828202905092915050565b6000614218826142ab565b9150614223836142ab565b925082821015614236576142356143d4565b5b828203905092915050565b600061424c8261428b565b9050919050565b60008115159050919050565b60007fffffffff0000000000000000000000000000000000000000000000000000000082169050919050565b600073ffffffffffffffffffffffffffffffffffffffff82169050919050565b6000819050919050565b82818337600083830152505050565b60005b838110156142e25780820151818401526020810190506142c7565b838111156142f1576000848401525b50505050565b6000600282049050600182168061430f57607f821691505b6020821081141561432357614322614432565b5b50919050565b61433282614502565b810181811067ffffffffffffffff82111715614351576143506144bf565b5b80604052505050565b6000614365826142ab565b91507fffffffffffffffffffffffffffffffffffffffffffffffffffffffffffffffff821415614398576143976143d4565b5b600182019050919050565b60006143ae826142ab565b91506143b9836142ab565b9250826143c9576143c8614403565b5b828206905092915050565b7f4e487b7100000000000000000000000000000000000000000000000000000000600052601160045260246000fd5b7f4e487b7100000000000000000000000000000000000000000000000000000000600052601260045260246000fd5b7f4e487b7100000000000000000000000000000000000000000000000000000000600052602260045260246000fd5b7f4e487b7100000000000000000000000000000000000000000000000000000000600052603160045260246000fd5b7f4e487b7100000000000000000000000000000000000000000000000000000000600052603260045260246000fd5b7f4e487b7100000000000000000000000000000000000000000000000000000000600052604160045260246000fd5b600080fd5b600080fd5b600080fd5b600080fd5b6000601f19601f8301169050919050565b7f5061757361626c653a206e6f7420706175736564000000000000000000000000600082015250565b7f596f7520646f6e2774206f776e20656e6f75676820746f6b656e7320746f207360008201527f656e64207468697320616d6f756e742e00000000000000000000000000000000602082015250565b7f455243373231456e756d657261626c653a206f776e657220696e646578206f7560008201527f74206f6620626f756e6473000000000000000000000000000000000000000000602082015250565b7f4552433732313a207472616e7366657220746f206e6f6e20455243373231526560008201527f63656976657220696d706c656d656e7465720000000000000000000000000000602082015250565b7f4f776e61626c653a206e6577206f776e657220697320746865207a65726f206160008201527f6464726573730000000000000000000000000000000000000000000000000000602082015250565b7f4552433732313a207472616e736665722066726f6d20696e636f72726563742060008201527f6f776e6572000000000000000000000000000000000000000000000000000000602082015250565b7f4552433732313a20746f6b656e20616c7265616479206d696e74656400000000600082015250565b7f4552433732313a207472616e7366657220746f20746865207a65726f2061646460008201527f7265737300000000000000000000000000000000000000000000000000000000602082015250565b7f4552433732313a20617070726f766520746f2063616c6c657200000000000000600082015250565b7f4e6f7420656e6f75676820746f6b656e20616c6c6f77616e63652e0000000000600082015250565b7f4552433732313a206f70657261746f7220717565727920666f72206e6f6e657860008201527f697374656e7420746f6b656e0000000000000000000000000000000000000000602082015250565b7f5061757361626c653a2070617573656400000000000000000000000000000000600082015250565b7f4552433732313a20617070726f76652063616c6c6572206973206e6f74206f7760008201527f6e6572206e6f7220617070726f76656420666f7220616c6c0000000000000000602082015250565b7f4552433732313a2062616c616e636520717565727920666f7220746865207a6560008201527f726f206164647265737300000000000000000000000000000000000000000000602082015250565b7f4552433732313a206f776e657220717565727920666f72206e6f6e657869737460008201527f656e7420746f6b656e0000000000000000000000000000000000000000000000602082015250565b7f4552433732313a206d696e7420746f20746865207a65726f2061646472657373600082015250565b7f4552433732313a20617070726f76656420717565727920666f72206e6f6e657860008201527f697374656e7420746f6b656e0000000000000000000000000000000000000000602082015250565b7f2e6a736f6e000000000000000000000000000000000000000000000000000000600082015250565b7f4f776e61626c653a2063616c6c6572206973206e6f7420746865206f776e6572600082015250565b7f446f6e6174696f6e73206d7573742062652067726561746572207468616e2030600082015250565b7f4552433732313a20617070726f76616c20746f2063757272656e74206f776e6560008201527f7200000000000000000000000000000000000000000000000000000000000000602082015250565b7f4552433732313a207472616e736665722063616c6c6572206973206e6f74206f60008201527f776e6572206e6f7220617070726f766564000000000000000000000000000000602082015250565b7f455243373231456e756d657261626c653a20676c6f62616c20696e646578206f60008201527f7574206f6620626f756e64730000000000000000000000000000000000000000602082015250565b614adf81614241565b8114614aea57600080fd5b50565b614af681614253565b8114614b0157600080fd5b50565b614b0d8161425f565b8114614b1857600080fd5b50565b614b24816142ab565b8114614b2f57600080fd5b5056fea2646970667358221220fb4669ffbde17af0a8c4f61aa6f0a5337f7806582a96cf87b000a79dcc6753cf64736f6c63430008070033446567656e2044776172667320436f6d6d756e6974792041727420436f6c6c656374696f6e",
  "linkReferences": {},
  "deployedLinkReferences": {}
}