{
  "_format": "hh-sol-artifact-1",
  "contractName": "DDCAC",
  "sourceName": "contracts/DDCAC.sol",
  "abi": [
    {
      "inputs": [
        {
          "internalType": "string",
          "name": "uri",
          "type": "string"
        }
      ],
      "stateMutability": "nonpayable",
      "type": "constructor"
    },
    {
      "anonymous": false,
      "inputs": [
        {
          "indexed": true,
          "internalType": "address",
          "name": "account",
          "type": "address"
        },
        {
          "indexed": true,
          "internalType": "address",
          "name": "operator",
          "type": "address"
        },
        {
          "indexed": false,
          "internalType": "bool",
          "name": "approved",
          "type": "bool"
        }
      ],
      "name": "ApprovalForAll",
      "type": "event"
    },
    {
      "anonymous": false,
      "inputs": [
        {
          "indexed": true,
          "internalType": "address",
          "name": "operator",
          "type": "address"
        },
        {
          "indexed": true,
          "internalType": "address",
          "name": "from",
          "type": "address"
        },
        {
          "indexed": true,
          "internalType": "address",
          "name": "to",
          "type": "address"
        },
        {
          "indexed": false,
          "internalType": "uint256[]",
          "name": "ids",
          "type": "uint256[]"
        },
        {
          "indexed": false,
          "internalType": "uint256[]",
          "name": "values",
          "type": "uint256[]"
        }
      ],
      "name": "TransferBatch",
      "type": "event"
    },
    {
      "anonymous": false,
      "inputs": [
        {
          "indexed": true,
          "internalType": "address",
          "name": "operator",
          "type": "address"
        },
        {
          "indexed": true,
          "internalType": "address",
          "name": "from",
          "type": "address"
        },
        {
          "indexed": true,
          "internalType": "address",
          "name": "to",
          "type": "address"
        },
        {
          "indexed": false,
          "internalType": "uint256",
          "name": "id",
          "type": "uint256"
        },
        {
          "indexed": false,
          "internalType": "uint256",
          "name": "value",
          "type": "uint256"
        }
      ],
      "name": "TransferSingle",
      "type": "event"
    },
    {
      "anonymous": false,
      "inputs": [
        {
          "indexed": false,
          "internalType": "string",
          "name": "value",
          "type": "string"
        },
        {
          "indexed": true,
          "internalType": "uint256",
          "name": "id",
          "type": "uint256"
        }
      ],
      "name": "URI",
      "type": "event"
    },
    {
      "inputs": [],
      "name": "MAX_SUPPLY",
      "outputs": [
        {
          "internalType": "uint256",
          "name": "",
          "type": "uint256"
        }
      ],
      "stateMutability": "view",
      "type": "function"
    },
    {
      "inputs": [],
      "name": "_tokenIds",
      "outputs": [
        {
          "internalType": "uint256",
          "name": "_value",
          "type": "uint256"
        }
      ],
      "stateMutability": "view",
      "type": "function"
    },
    {
      "inputs": [
        {
          "internalType": "address",
          "name": "account",
          "type": "address"
        },
        {
          "internalType": "uint256",
          "name": "id",
          "type": "uint256"
        }
      ],
      "name": "balanceOf",
      "outputs": [
        {
          "internalType": "uint256",
          "name": "",
          "type": "uint256"
        }
      ],
      "stateMutability": "view",
      "type": "function"
    },
    {
      "inputs": [
        {
          "internalType": "address[]",
          "name": "accounts",
          "type": "address[]"
        },
        {
          "internalType": "uint256[]",
          "name": "ids",
          "type": "uint256[]"
        }
      ],
      "name": "balanceOfBatch",
      "outputs": [
        {
          "internalType": "uint256[]",
          "name": "",
          "type": "uint256[]"
        }
      ],
      "stateMutability": "view",
      "type": "function"
    },
    {
      "inputs": [
        {
          "internalType": "address",
          "name": "owner",
          "type": "address"
        },
        {
          "internalType": "uint256",
          "name": "id",
          "type": "uint256"
        },
        {
          "internalType": "uint256",
          "name": "value",
          "type": "uint256"
        }
      ],
      "name": "burn",
      "outputs": [],
      "stateMutability": "nonpayable",
      "type": "function"
    },
    {
      "inputs": [
        {
          "internalType": "address",
          "name": "owner",
          "type": "address"
        },
        {
          "internalType": "uint256[]",
          "name": "ids",
          "type": "uint256[]"
        },
        {
          "internalType": "uint256[]",
          "name": "values",
          "type": "uint256[]"
        }
      ],
      "name": "burnBatch",
      "outputs": [],
      "stateMutability": "nonpayable",
      "type": "function"
    },
    {
      "inputs": [
        {
          "internalType": "address",
          "name": "_address",
          "type": "address"
        }
      ],
      "name": "getERC721BalanceOffChain",
      "outputs": [
        {
          "internalType": "uint256",
          "name": "",
          "type": "uint256"
        }
      ],
      "stateMutability": "view",
      "type": "function"
    },
    {
      "inputs": [],
      "name": "getOwnershipRecordOffChain",
      "outputs": [
        {
          "internalType": "address[5000]",
          "name": "",
          "type": "address[5000]"
        }
      ],
      "stateMutability": "view",
      "type": "function"
    },
    {
      "inputs": [
        {
          "internalType": "address",
          "name": "account",
          "type": "address"
        },
        {
          "internalType": "address",
          "name": "operator",
          "type": "address"
        }
      ],
      "name": "isApprovedForAll",
      "outputs": [
        {
          "internalType": "bool",
          "name": "",
          "type": "bool"
        }
      ],
      "stateMutability": "view",
      "type": "function"
    },
    {
      "inputs": [
        {
          "internalType": "address",
          "name": "to",
          "type": "address"
        }
      ],
      "name": "mint",
      "outputs": [],
      "stateMutability": "nonpayable",
      "type": "function"
    },
    {
      "inputs": [
        {
          "internalType": "uint256",
          "name": "id",
          "type": "uint256"
        }
      ],
      "name": "ownerOfERC721Like",
      "outputs": [
        {
          "internalType": "address",
          "name": "",
          "type": "address"
        }
      ],
      "stateMutability": "view",
      "type": "function"
    },
    {
      "inputs": [
        {
          "internalType": "address",
          "name": "from",
          "type": "address"
        },
        {
          "internalType": "address",
          "name": "to",
          "type": "address"
        },
        {
          "internalType": "uint256[]",
          "name": "ids",
          "type": "uint256[]"
        },
        {
          "internalType": "uint256[]",
          "name": "amounts",
          "type": "uint256[]"
        },
        {
          "internalType": "bytes",
          "name": "data",
          "type": "bytes"
        }
      ],
      "name": "safeBatchTransferFrom",
      "outputs": [],
      "stateMutability": "nonpayable",
      "type": "function"
    },
    {
      "inputs": [
        {
          "internalType": "address",
          "name": "from",
          "type": "address"
        },
        {
          "internalType": "address",
          "name": "to",
          "type": "address"
        },
        {
          "internalType": "uint256",
          "name": "id",
          "type": "uint256"
        },
        {
          "internalType": "uint256",
          "name": "amount",
          "type": "uint256"
        },
        {
          "internalType": "bytes",
          "name": "data",
          "type": "bytes"
        }
      ],
      "name": "safeTransferFrom",
      "outputs": [],
      "stateMutability": "nonpayable",
      "type": "function"
    },
    {
      "inputs": [
        {
          "internalType": "address",
          "name": "operator",
          "type": "address"
        },
        {
          "internalType": "bool",
          "name": "approved",
          "type": "bool"
        }
      ],
      "name": "setApprovalForAll",
      "outputs": [],
      "stateMutability": "nonpayable",
      "type": "function"
    },
    {
      "inputs": [
        {
          "internalType": "string",
          "name": "newuri",
          "type": "string"
        }
      ],
      "name": "setURI",
      "outputs": [],
      "stateMutability": "nonpayable",
      "type": "function"
    },
    {
      "inputs": [
        {
          "internalType": "bytes4",
          "name": "interfaceId",
          "type": "bytes4"
        }
      ],
      "name": "supportsInterface",
      "outputs": [
        {
          "internalType": "bool",
          "name": "",
          "type": "bool"
        }
      ],
      "stateMutability": "view",
      "type": "function"
    },
    {
      "inputs": [
        {
          "internalType": "uint256",
          "name": "",
          "type": "uint256"
        }
      ],
      "name": "uri",
      "outputs": [
        {
          "internalType": "string",
          "name": "",
          "type": "string"
        }
      ],
      "stateMutability": "view",
      "type": "function"
    }
  ],
  "bytecode": "0x60806040523480156200001157600080fd5b5060405162003c5f38038062003c5f83398181016040528101906200003791906200019c565b8062000049816200005160201b60201c565b505062000371565b8061138990805190602001906200006a9291906200006e565b5050565b8280546200007c9062000282565b90600052602060002090601f016020900481019282620000a05760008555620000ec565b82601f10620000bb57805160ff1916838001178555620000ec565b82800160010185558215620000ec579182015b82811115620000eb578251825591602001919060010190620000ce565b5b509050620000fb9190620000ff565b5090565b5b808211156200011a57600081600090555060010162000100565b5090565b6000620001356200012f8462000216565b620001ed565b90508281526020810184848401111562000154576200015362000351565b5b620001618482856200024c565b509392505050565b600082601f8301126200018157620001806200034c565b5b8151620001938482602086016200011e565b91505092915050565b600060208284031215620001b557620001b46200035b565b5b600082015167ffffffffffffffff811115620001d657620001d562000356565b5b620001e48482850162000169565b91505092915050565b6000620001f96200020c565b9050620002078282620002b8565b919050565b6000604051905090565b600067ffffffffffffffff8211156200023457620002336200031d565b5b6200023f8262000360565b9050602081019050919050565b60005b838110156200026c5780820151818401526020810190506200024f565b838111156200027c576000848401525b50505050565b600060028204905060018216806200029b57607f821691505b60208210811415620002b257620002b1620002ee565b5b50919050565b620002c38262000360565b810181811067ffffffffffffffff82111715620002e557620002e46200031d565b5b80604052505050565b7f4e487b7100000000000000000000000000000000000000000000000000000000600052602260045260246000fd5b7f4e487b7100000000000000000000000000000000000000000000000000000000600052604160045260246000fd5b600080fd5b600080fd5b600080fd5b600080fd5b6000601f19601f8301169050919050565b6138de80620003816000396000f3fe608060405234801561001057600080fd5b506004361061010a5760003560e01c806356e695ed116100a2578063a22cb46511610071578063a22cb465146102db578063aa46a400146102f7578063e985e9c514610315578063f242432a14610345578063f5298aca146103615761010a565b806356e695ed146102555780636a627842146102735780636b20c4541461028f5780638e477789146102ab5761010a565b80632eb2c2d6116100de5780632eb2c2d6146101bb57806332cb6b0c146101d757806339f81d8b146101f55780634e1273f4146102255761010a565b8062fdd58e1461010f57806301ffc9a71461013f57806302fe53051461016f5780630e89341c1461018b575b600080fd5b61012960048036038101906101249190612530565b61037d565b6040516101369190612eb0565b60405180910390f35b6101596004803603810190610154919061263b565b6104b0565b6040516101669190612c53565b60405180910390f35b61018960048036038101906101849190612695565b610592565b005b6101a560048036038101906101a091906126de565b61059e565b6040516101b29190612c6e565b60405180910390f35b6101d560048036038101906101d091906122ff565b610633565b005b6101df6106d4565b6040516101ec9190612eb0565b60405180910390f35b61020f600480360381019061020a9190612292565b6106da565b60405161021c9190612eb0565b60405180910390f35b61023f600480360381019061023a91906125c3565b610784565b60405161024c9190612bfa565b60405180910390f35b61025d61089d565b60405161026a9190612bdd565b60405180910390f35b61028d60048036038101906102889190612292565b610920565b005b6102a960048036038101906102a49190612465565b610954565b005b6102c560048036038101906102c091906126de565b610964565b6040516102d29190612b00565b60405180910390f35b6102f560048036038101906102f091906124f0565b610a5d565b005b6102ff610a73565b60405161030c9190612eb0565b60405180910390f35b61032f600480360381019061032a91906122bf565b610a80565b60405161033c9190612c53565b60405180910390f35b61035f600480360381019061035a91906123ce565b610b15565b005b61037b60048036038101906103769190612570565b610bb6565b005b60008073ffffffffffffffffffffffffffffffffffffffff168373ffffffffffffffffffffffffffffffffffffffff1614156103ee576040517f08c379a00000000000000000000000000000000000000000000000000000000081526004016103e590612cd0565b60405180910390fd5b6113888210610432576040517f08c379a000000000000000000000000000000000000000000000000000000000815260040161042990612d70565b60405180910390fd5b8273ffffffffffffffffffffffffffffffffffffffff16600083611388811061045e5761045d613232565b5b0160009054906101000a900473ffffffffffffffffffffffffffffffffffffffff1673ffffffffffffffffffffffffffffffffffffffff16146104a25760006104a5565b60015b60ff16905092915050565b60007fd9b67a26000000000000000000000000000000000000000000000000000000007bffffffffffffffffffffffffffffffffffffffffffffffffffffffff1916827bffffffffffffffffffffffffffffffffffffffffffffffffffffffff1916148061057b57507f0e89341c000000000000000000000000000000000000000000000000000000007bffffffffffffffffffffffffffffffffffffffffffffffffffffffff1916827bffffffffffffffffffffffffffffffffffffffffffffffffffffffff1916145b8061058b575061058a82610bc6565b5b9050919050565b61059b81610c30565b50565b606061138980546105ae90613128565b80601f01602080910402602001604051908101604052809291908181526020018280546105da90613128565b80156106275780601f106105fc57610100808354040283529160200191610627565b820191906000526020600020905b81548152906001019060200180831161060a57829003601f168201915b50505050509050919050565b61063b610c4b565b73ffffffffffffffffffffffffffffffffffffffff168573ffffffffffffffffffffffffffffffffffffffff16148061068157506106808561067b610c4b565b610a80565b5b6106c0576040517f08c379a00000000000000000000000000000000000000000000000000000000081526004016106b790612db0565b60405180910390fd5b6106cd8585858585610c53565b5050505050565b61138881565b6000806000905060005b61138881101561077a578373ffffffffffffffffffffffffffffffffffffffff16600082611388811061071a57610719613232565b5b0160009054906101000a900473ffffffffffffffffffffffffffffffffffffffff1673ffffffffffffffffffffffffffffffffffffffff1614156107675781806107639061318b565b9250505b80806107729061318b565b9150506106e4565b5080915050919050565b606081518351146107ca576040517f08c379a00000000000000000000000000000000000000000000000000000000081526004016107c190612e50565b60405180910390fd5b6000835167ffffffffffffffff8111156107e7576107e6613261565b5b6040519080825280602002602001820160405280156108155781602001602082028036833780820191505090505b50905060005b84518110156108925761086285828151811061083a57610839613232565b5b602002602001015185838151811061085557610854613232565b5b602002602001015161037d565b82828151811061087557610874613232565b5b6020026020010181815250508061088b9061318b565b905061081b565b508091505092915050565b6108a5611f45565b60006113888060200260405190810160405280929190826113888015610916576020028201915b8160009054906101000a900473ffffffffffffffffffffffffffffffffffffffff1673ffffffffffffffffffffffffffffffffffffffff16815260200190600101908083116108cc575b5050505050905090565b61092b61138a610f44565b6109518161093a61138a610f5a565b600160405180602001604052806000815250610f68565b50565b61095f838383611199565b505050565b600061138882106109aa576040517f08c379a00000000000000000000000000000000000000000000000000000000081526004016109a190612d70565b60405180910390fd5b6000808361138881106109c0576109bf613232565b5b0160009054906101000a900473ffffffffffffffffffffffffffffffffffffffff169050600073ffffffffffffffffffffffffffffffffffffffff168173ffffffffffffffffffffffffffffffffffffffff161415610a54576040517f08c379a0000000000000000000000000000000000000000000000000000000008152600401610a4b90612e10565b60405180910390fd5b80915050919050565b610a6f610a68610c4b565b838361149d565b5050565b61138a8060000154905081565b600061138860008473ffffffffffffffffffffffffffffffffffffffff1673ffffffffffffffffffffffffffffffffffffffff16815260200190815260200160002060008373ffffffffffffffffffffffffffffffffffffffff1673ffffffffffffffffffffffffffffffffffffffff16815260200190815260200160002060009054906101000a900460ff16905092915050565b610b1d610c4b565b73ffffffffffffffffffffffffffffffffffffffff168573ffffffffffffffffffffffffffffffffffffffff161480610b635750610b6285610b5d610c4b565b610a80565b5b610ba2576040517f08c379a0000000000000000000000000000000000000000000000000000000008152600401610b9990612d10565b60405180910390fd5b610baf858585858561160b565b5050505050565b610bc1838383611862565b505050565b60007f01ffc9a7000000000000000000000000000000000000000000000000000000007bffffffffffffffffffffffffffffffffffffffffffffffffffffffff1916827bffffffffffffffffffffffffffffffffffffffffffffffffffffffff1916149050919050565b806113899080519060200190610c47929190611f6a565b5050565b600033905090565b8151835114610c97576040517f08c379a0000000000000000000000000000000000000000000000000000000008152600401610c8e90612e70565b60405180910390fd5b600073ffffffffffffffffffffffffffffffffffffffff168473ffffffffffffffffffffffffffffffffffffffff161415610d07576040517f08c379a0000000000000000000000000000000000000000000000000000000008152600401610cfe90612d90565b60405180910390fd5b6000610d11610c4b565b9050610d21818787878787611aca565b60005b8451811015610ea1576000858281518110610d4257610d41613232565b5b602002602001015190508773ffffffffffffffffffffffffffffffffffffffff166000826113888110610d7857610d77613232565b5b0160009054906101000a900473ffffffffffffffffffffffffffffffffffffffff1673ffffffffffffffffffffffffffffffffffffffff16148015610dd757506002858381518110610dcd57610dcc613232565b5b6020026020010151105b610e16576040517f08c379a0000000000000000000000000000000000000000000000000000000008152600401610e0d90612df0565b60405180910390fd5b6001858381518110610e2b57610e2a613232565b5b60200260200101511415610e8f57866000826113888110610e4f57610e4e613232565b5b0160006101000a81548173ffffffffffffffffffffffffffffffffffffffff021916908373ffffffffffffffffffffffffffffffffffffffff1602179055505b5080610e9a9061318b565b9050610d24565b508473ffffffffffffffffffffffffffffffffffffffff168673ffffffffffffffffffffffffffffffffffffffff168273ffffffffffffffffffffffffffffffffffffffff167f4a39dc06d4c0dbc64b70af90fd698a233a518aa5d07e595d983b8c0526c8f7fb8787604051610f18929190612c1c565b60405180910390a4610f2e818787878787611ad2565b610f3c818787878787611ada565b505050505050565b6001816000016000828254019250508190555050565b600081600001549050919050565b600073ffffffffffffffffffffffffffffffffffffffff168473ffffffffffffffffffffffffffffffffffffffff161415610fd8576040517f08c379a0000000000000000000000000000000000000000000000000000000008152600401610fcf90612e90565b60405180910390fd5b6002821061101b576040517f08c379a000000000000000000000000000000000000000000000000000000000815260040161101290612d30565b60405180910390fd5b611388831061105f576040517f08c379a000000000000000000000000000000000000000000000000000000000815260040161105690612d50565b60405180910390fd5b6000611069610c4b565b9050600061107685611cc1565b9050600061108385611cc1565b905061109483600089858589611aca565b60018514156110f3578660008761138881106110b3576110b2613232565b5b0160006101000a81548173ffffffffffffffffffffffffffffffffffffffff021916908373ffffffffffffffffffffffffffffffffffffffff1602179055505b8673ffffffffffffffffffffffffffffffffffffffff16600073ffffffffffffffffffffffffffffffffffffffff168473ffffffffffffffffffffffffffffffffffffffff167fc3d58168c5ae7397731d063d5bbf3d657854427343f4c083240f7aacaa2d0f62898960405161116a929190612ecb565b60405180910390a461118183600089858589611ad2565b61119083600089898989611d3b565b50505050505050565b600073ffffffffffffffffffffffffffffffffffffffff168373ffffffffffffffffffffffffffffffffffffffff161415611209576040517f08c379a000000000000000000000000000000000000000000000000000000000815260040161120090612dd0565b60405180910390fd5b805182511461124d576040517f08c379a000000000000000000000000000000000000000000000000000000000815260040161124490612e70565b60405180910390fd5b6000611257610c4b565b905061127781856000868660405180602001604052806000815250611aca565b60005b83518110156113f957600084828151811061129857611297613232565b5b602002602001015190508573ffffffffffffffffffffffffffffffffffffffff1660008261138881106112ce576112cd613232565b5b0160009054906101000a900473ffffffffffffffffffffffffffffffffffffffff1673ffffffffffffffffffffffffffffffffffffffff1614801561132d5750600284838151811061132357611322613232565b5b6020026020010151105b61136c576040517f08c379a000000000000000000000000000000000000000000000000000000000815260040161136390612cf0565b60405180910390fd5b600184838151811061138157611380613232565b5b602002602001015114156113e5576000808261138881106113a5576113a4613232565b5b0160006101000a81548173ffffffffffffffffffffffffffffffffffffffff021916908373ffffffffffffffffffffffffffffffffffffffff1602179055505b5080806113f19061318b565b91505061127a565b50600073ffffffffffffffffffffffffffffffffffffffff168473ffffffffffffffffffffffffffffffffffffffff168273ffffffffffffffffffffffffffffffffffffffff167f4a39dc06d4c0dbc64b70af90fd698a233a518aa5d07e595d983b8c0526c8f7fb8686604051611471929190612c1c565b60405180910390a461149781856000868660405180602001604052806000815250611ad2565b50505050565b8173ffffffffffffffffffffffffffffffffffffffff168373ffffffffffffffffffffffffffffffffffffffff16141561150c576040517f08c379a000000000000000000000000000000000000000000000000000000000815260040161150390612e30565b60405180910390fd5b8061138860008573ffffffffffffffffffffffffffffffffffffffff1673ffffffffffffffffffffffffffffffffffffffff16815260200190815260200160002060008473ffffffffffffffffffffffffffffffffffffffff1673ffffffffffffffffffffffffffffffffffffffff16815260200190815260200160002060006101000a81548160ff0219169083151502179055508173ffffffffffffffffffffffffffffffffffffffff168373ffffffffffffffffffffffffffffffffffffffff167f17307eab39ab6107e8899845ad3d59bd9653f200f220920489ca2b5937696c31836040516115fe9190612c53565b60405180910390a3505050565b600073ffffffffffffffffffffffffffffffffffffffff168473ffffffffffffffffffffffffffffffffffffffff16141561167b576040517f08c379a000000000000000000000000000000000000000000000000000000000815260040161167290612d90565b60405180910390fd5b6000611685610c4b565b9050600061169285611cc1565b9050600061169f85611cc1565b90506116af838989858589611aca565b8773ffffffffffffffffffffffffffffffffffffffff1660008761138881106116db576116da613232565b5b0160009054906101000a900473ffffffffffffffffffffffffffffffffffffffff1673ffffffffffffffffffffffffffffffffffffffff161480156117205750600285105b61175f576040517f08c379a000000000000000000000000000000000000000000000000000000000815260040161175690612df0565b60405180910390fd5b60018514156117be5786600087611388811061177e5761177d613232565b5b0160006101000a81548173ffffffffffffffffffffffffffffffffffffffff021916908373ffffffffffffffffffffffffffffffffffffffff1602179055505b8673ffffffffffffffffffffffffffffffffffffffff168873ffffffffffffffffffffffffffffffffffffffff168473ffffffffffffffffffffffffffffffffffffffff167fc3d58168c5ae7397731d063d5bbf3d657854427343f4c083240f7aacaa2d0f628989604051611834929190612ecb565b60405180910390a461184a838989858589611ad2565b611858838989898989611d3b565b5050505050505050565b600073ffffffffffffffffffffffffffffffffffffffff168373ffffffffffffffffffffffffffffffffffffffff1614156118d2576040517f08c379a00000000000000000000000000000000000000000000000000000000081526004016118c990612dd0565b60405180910390fd5b60006118dc610c4b565b905060006118e984611cc1565b905060006118f684611cc1565b905061191683876000858560405180602001604052806000815250611aca565b8573ffffffffffffffffffffffffffffffffffffffff16600086611388811061194257611941613232565b5b0160009054906101000a900473ffffffffffffffffffffffffffffffffffffffff1673ffffffffffffffffffffffffffffffffffffffff161480156119875750600284105b6119c6576040517f08c379a00000000000000000000000000000000000000000000000000000000081526004016119bd90612cf0565b60405180910390fd5b6001841415611a25576000808661138881106119e5576119e4613232565b5b0160006101000a81548173ffffffffffffffffffffffffffffffffffffffff021916908373ffffffffffffffffffffffffffffffffffffffff1602179055505b600073ffffffffffffffffffffffffffffffffffffffff168673ffffffffffffffffffffffffffffffffffffffff168473ffffffffffffffffffffffffffffffffffffffff167fc3d58168c5ae7397731d063d5bbf3d657854427343f4c083240f7aacaa2d0f628888604051611a9c929190612ecb565b60405180910390a4611ac283876000858560405180602001604052806000815250611ad2565b505050505050565b505050505050565b505050505050565b611af98473ffffffffffffffffffffffffffffffffffffffff16611f22565b15611cb9578373ffffffffffffffffffffffffffffffffffffffff1663bc197c8187878686866040518663ffffffff1660e01b8152600401611b3f959493929190612b1b565b602060405180830381600087803b158015611b5957600080fd5b505af1925050508015611b8a57506040513d601f19601f82011682018060405250810190611b879190612668565b60015b611c3057611b96613290565b806308c379a01415611bf35750611bab6137b6565b80611bb65750611bf5565b806040517f08c379a0000000000000000000000000000000000000000000000000000000008152600401611bea9190612c6e565b60405180910390fd5b505b6040517f08c379a0000000000000000000000000000000000000000000000000000000008152600401611c2790612c90565b60405180910390fd5b63bc197c8160e01b7bffffffffffffffffffffffffffffffffffffffffffffffffffffffff1916817bffffffffffffffffffffffffffffffffffffffffffffffffffffffff191614611cb7576040517f08c379a0000000000000000000000000000000000000000000000000000000008152600401611cae90612cb0565b60405180910390fd5b505b505050505050565b60606000600167ffffffffffffffff811115611ce057611cdf613261565b5b604051908082528060200260200182016040528015611d0e5781602001602082028036833780820191505090505b5090508281600081518110611d2657611d25613232565b5b60200260200101818152505080915050919050565b611d5a8473ffffffffffffffffffffffffffffffffffffffff16611f22565b15611f1a578373ffffffffffffffffffffffffffffffffffffffff1663f23a6e6187878686866040518663ffffffff1660e01b8152600401611da0959493929190612b83565b602060405180830381600087803b158015611dba57600080fd5b505af1925050508015611deb57506040513d601f19601f82011682018060405250810190611de89190612668565b60015b611e9157611df7613290565b806308c379a01415611e545750611e0c6137b6565b80611e175750611e56565b806040517f08c379a0000000000000000000000000000000000000000000000000000000008152600401611e4b9190612c6e565b60405180910390fd5b505b6040517f08c379a0000000000000000000000000000000000000000000000000000000008152600401611e8890612c90565b60405180910390fd5b63f23a6e6160e01b7bffffffffffffffffffffffffffffffffffffffffffffffffffffffff1916817bffffffffffffffffffffffffffffffffffffffffffffffffffffffff191614611f18576040517f08c379a0000000000000000000000000000000000000000000000000000000008152600401611f0f90612cb0565b60405180910390fd5b505b505050505050565b6000808273ffffffffffffffffffffffffffffffffffffffff163b119050919050565b6040518062027100016040528061138890602082028036833780820191505090505090565b828054611f7690613128565b90600052602060002090601f016020900481019282611f985760008555611fdf565b82601f10611fb157805160ff1916838001178555611fdf565b82800160010185558215611fdf579182015b82811115611fde578251825591602001919060010190611fc3565b5b509050611fec9190611ff0565b5090565b5b80821115612009576000816000905550600101611ff1565b5090565b600061202061201b84612f19565b612ef4565b90508083825260208201905082856020860282011115612043576120426132b7565b5b60005b8581101561207357816120598882612171565b845260208401935060208301925050600181019050612046565b5050509392505050565b600061209061208b84612f45565b612ef4565b905080838252602082019050828560208602820111156120b3576120b26132b7565b5b60005b858110156120e357816120c9888261227d565b8452602084019350602083019250506001810190506120b6565b5050509392505050565b60006121006120fb84612f71565b612ef4565b90508281526020810184848401111561211c5761211b6132bc565b5b6121278482856130e6565b509392505050565b600061214261213d84612fa2565b612ef4565b90508281526020810184848401111561215e5761215d6132bc565b5b6121698482856130e6565b509392505050565b6000813590506121808161384c565b92915050565b600082601f83011261219b5761219a6132b2565b5b81356121ab84826020860161200d565b91505092915050565b600082601f8301126121c9576121c86132b2565b5b81356121d984826020860161207d565b91505092915050565b6000813590506121f181613863565b92915050565b6000813590506122068161387a565b92915050565b60008151905061221b8161387a565b92915050565b600082601f830112612236576122356132b2565b5b81356122468482602086016120ed565b91505092915050565b600082601f830112612264576122636132b2565b5b813561227484826020860161212f565b91505092915050565b60008135905061228c81613891565b92915050565b6000602082840312156122a8576122a76132c6565b5b60006122b684828501612171565b91505092915050565b600080604083850312156122d6576122d56132c6565b5b60006122e485828601612171565b92505060206122f585828601612171565b9150509250929050565b600080600080600060a0868803121561231b5761231a6132c6565b5b600061232988828901612171565b955050602061233a88828901612171565b945050604086013567ffffffffffffffff81111561235b5761235a6132c1565b5b612367888289016121b4565b935050606086013567ffffffffffffffff811115612388576123876132c1565b5b612394888289016121b4565b925050608086013567ffffffffffffffff8111156123b5576123b46132c1565b5b6123c188828901612221565b9150509295509295909350565b600080600080600060a086880312156123ea576123e96132c6565b5b60006123f888828901612171565b955050602061240988828901612171565b945050604061241a8882890161227d565b935050606061242b8882890161227d565b925050608086013567ffffffffffffffff81111561244c5761244b6132c1565b5b61245888828901612221565b9150509295509295909350565b60008060006060848603121561247e5761247d6132c6565b5b600061248c86828701612171565b935050602084013567ffffffffffffffff8111156124ad576124ac6132c1565b5b6124b9868287016121b4565b925050604084013567ffffffffffffffff8111156124da576124d96132c1565b5b6124e6868287016121b4565b9150509250925092565b60008060408385031215612507576125066132c6565b5b600061251585828601612171565b9250506020612526858286016121e2565b9150509250929050565b60008060408385031215612547576125466132c6565b5b600061255585828601612171565b92505060206125668582860161227d565b9150509250929050565b600080600060608486031215612589576125886132c6565b5b600061259786828701612171565b93505060206125a88682870161227d565b92505060406125b98682870161227d565b9150509250925092565b600080604083850312156125da576125d96132c6565b5b600083013567ffffffffffffffff8111156125f8576125f76132c1565b5b61260485828601612186565b925050602083013567ffffffffffffffff811115612625576126246132c1565b5b612631858286016121b4565b9150509250929050565b600060208284031215612651576126506132c6565b5b600061265f848285016121f7565b91505092915050565b60006020828403121561267e5761267d6132c6565b5b600061268c8482850161220c565b91505092915050565b6000602082840312156126ab576126aa6132c6565b5b600082013567ffffffffffffffff8111156126c9576126c86132c1565b5b6126d58482850161224f565b91505092915050565b6000602082840312156126f4576126f36132c6565b5b60006127028482850161227d565b91505092915050565b6000612717838361273b565b60208301905092915050565b600061272f8383612ae2565b60208301905092915050565b61274481613072565b82525050565b61275381613072565b82525050565b61276281612fed565b61276c8184613034565b925061277782612fd3565b8060005b838110156127a857815161278f878261270b565b965061279a8361301a565b92505060018101905061277b565b505050505050565b60006127bb82612ff9565b6127c5818561303f565b93506127d083612fdd565b8060005b838110156128015781516127e88882612723565b97506127f383613027565b9250506001810190506127d4565b5085935050505092915050565b61281781613084565b82525050565b600061282882613004565b6128328185613050565b93506128428185602086016130f5565b61284b816132cb565b840191505092915050565b60006128618261300f565b61286b8185613061565b935061287b8185602086016130f5565b612884816132cb565b840191505092915050565b600061289c603483613061565b91506128a7826132e9565b604082019050919050565b60006128bf602883613061565b91506128ca82613338565b604082019050919050565b60006128e2602b83613061565b91506128ed82613387565b604082019050919050565b6000612905602483613061565b9150612910826133d6565b604082019050919050565b6000612928602983613061565b915061293382613425565b604082019050919050565b600061294b601883613061565b915061295682613474565b602082019050919050565b600061296e601483613061565b91506129798261349d565b602082019050919050565b6000612991601c83613061565b915061299c826134c6565b602082019050919050565b60006129b4602583613061565b91506129bf826134ef565b604082019050919050565b60006129d7603283613061565b91506129e28261353e565b604082019050919050565b60006129fa602383613061565b9150612a058261358d565b604082019050919050565b6000612a1d602a83613061565b9150612a28826135dc565b604082019050919050565b6000612a40602b83613061565b9150612a4b8261362b565b604082019050919050565b6000612a63602983613061565b9150612a6e8261367a565b604082019050919050565b6000612a86602983613061565b9150612a91826136c9565b604082019050919050565b6000612aa9602883613061565b9150612ab482613718565b604082019050919050565b6000612acc602183613061565b9150612ad782613767565b604082019050919050565b612aeb816130dc565b82525050565b612afa816130dc565b82525050565b6000602082019050612b15600083018461274a565b92915050565b600060a082019050612b30600083018861274a565b612b3d602083018761274a565b8181036040830152612b4f81866127b0565b90508181036060830152612b6381856127b0565b90508181036080830152612b77818461281d565b90509695505050505050565b600060a082019050612b98600083018861274a565b612ba5602083018761274a565b612bb26040830186612af1565b612bbf6060830185612af1565b8181036080830152612bd1818461281d565b90509695505050505050565b60006202710082019050612bf46000830184612759565b92915050565b60006020820190508181036000830152612c1481846127b0565b905092915050565b60006040820190508181036000830152612c3681856127b0565b90508181036020830152612c4a81846127b0565b90509392505050565b6000602082019050612c68600083018461280e565b92915050565b60006020820190508181036000830152612c888184612856565b905092915050565b60006020820190508181036000830152612ca98161288f565b9050919050565b60006020820190508181036000830152612cc9816128b2565b9050919050565b60006020820190508181036000830152612ce9816128d5565b9050919050565b60006020820190508181036000830152612d09816128f8565b9050919050565b60006020820190508181036000830152612d298161291b565b9050919050565b60006020820190508181036000830152612d498161293e565b9050919050565b60006020820190508181036000830152612d6981612961565b9050919050565b60006020820190508181036000830152612d8981612984565b9050919050565b60006020820190508181036000830152612da9816129a7565b9050919050565b60006020820190508181036000830152612dc9816129ca565b9050919050565b60006020820190508181036000830152612de9816129ed565b9050919050565b60006020820190508181036000830152612e0981612a10565b9050919050565b60006020820190508181036000830152612e2981612a33565b9050919050565b60006020820190508181036000830152612e4981612a56565b9050919050565b60006020820190508181036000830152612e6981612a79565b9050919050565b60006020820190508181036000830152612e8981612a9c565b9050919050565b60006020820190508181036000830152612ea981612abf565b9050919050565b6000602082019050612ec56000830184612af1565b92915050565b6000604082019050612ee06000830185612af1565b612eed6020830184612af1565b9392505050565b6000612efe612f0f565b9050612f0a828261315a565b919050565b6000604051905090565b600067ffffffffffffffff821115612f3457612f33613261565b5b602082029050602081019050919050565b600067ffffffffffffffff821115612f6057612f5f613261565b5b602082029050602081019050919050565b600067ffffffffffffffff821115612f8c57612f8b613261565b5b612f95826132cb565b9050602081019050919050565b600067ffffffffffffffff821115612fbd57612fbc613261565b5b612fc6826132cb565b9050602081019050919050565b6000819050919050565b6000819050602082019050919050565b60006113889050919050565b600081519050919050565b600081519050919050565b600081519050919050565b6000602082019050919050565b6000602082019050919050565b600081905092915050565b600082825260208201905092915050565b600082825260208201905092915050565b600082825260208201905092915050565b600061307d826130bc565b9050919050565b60008115159050919050565b60007fffffffff0000000000000000000000000000000000000000000000000000000082169050919050565b600073ffffffffffffffffffffffffffffffffffffffff82169050919050565b6000819050919050565b82818337600083830152505050565b60005b838110156131135780820151818401526020810190506130f8565b83811115613122576000848401525b50505050565b6000600282049050600182168061314057607f821691505b6020821081141561315457613153613203565b5b50919050565b613163826132cb565b810181811067ffffffffffffffff8211171561318257613181613261565b5b80604052505050565b6000613196826130dc565b91507fffffffffffffffffffffffffffffffffffffffffffffffffffffffffffffffff8214156131c9576131c86131d4565b5b600182019050919050565b7f4e487b7100000000000000000000000000000000000000000000000000000000600052601160045260246000fd5b7f4e487b7100000000000000000000000000000000000000000000000000000000600052602260045260246000fd5b7f4e487b7100000000000000000000000000000000000000000000000000000000600052603260045260246000fd5b7f4e487b7100000000000000000000000000000000000000000000000000000000600052604160045260246000fd5b600060033d11156132af5760046000803e6132ac6000516132dc565b90505b90565b600080fd5b600080fd5b600080fd5b600080fd5b600080fd5b6000601f19601f8301169050919050565b60008160e01c9050919050565b7f455243313135353a207472616e7366657220746f206e6f6e204552433131353560008201527f526563656976657220696d706c656d656e746572000000000000000000000000602082015250565b7f455243313135353a204552433131353552656365697665722072656a6563746560008201527f6420746f6b656e73000000000000000000000000000000000000000000000000602082015250565b7f455243313135353a2062616c616e636520717565727920666f7220746865207a60008201527f65726f2061646472657373000000000000000000000000000000000000000000602082015250565b7f455243313135353a206275726e20616d6f756e7420657863656564732062616c60008201527f616e636500000000000000000000000000000000000000000000000000000000602082015250565b7f455243313135353a2063616c6c6572206973206e6f74206f776e6572206e6f7260008201527f20617070726f7665640000000000000000000000000000000000000000000000602082015250565b7f45524331313535443a206578636565647320737570706c790000000000000000600082015250565b7f45524331313535443a20696e76616c6964206964000000000000000000000000600082015250565b7f45524331313535443a2069642065786365656473206d6178696d756d00000000600082015250565b7f455243313135353a207472616e7366657220746f20746865207a65726f20616460008201527f6472657373000000000000000000000000000000000000000000000000000000602082015250565b7f455243313135353a207472616e736665722063616c6c6572206973206e6f742060008201527f6f776e6572206e6f7220617070726f7665640000000000000000000000000000602082015250565b7f455243313135353a206275726e2066726f6d20746865207a65726f206164647260008201527f6573730000000000000000000000000000000000000000000000000000000000602082015250565b7f455243313135353a20696e73756666696369656e742062616c616e636520666f60008201527f72207472616e7366657200000000000000000000000000000000000000000000602082015250565b7f45524331313535443a206f776e657220717565727920666f72206e6f6e65786960008201527f7374656e7420746f6b656e000000000000000000000000000000000000000000602082015250565b7f455243313135353a2073657474696e6720617070726f76616c2073746174757360008201527f20666f722073656c660000000000000000000000000000000000000000000000602082015250565b7f455243313135353a206163636f756e747320616e6420696473206c656e67746860008201527f206d69736d617463680000000000000000000000000000000000000000000000602082015250565b7f455243313135353a2069647320616e6420616d6f756e7473206c656e6774682060008201527f6d69736d61746368000000000000000000000000000000000000000000000000602082015250565b7f455243313135353a206d696e7420746f20746865207a65726f2061646472657360008201527f7300000000000000000000000000000000000000000000000000000000000000602082015250565b600060443d10156137c657613849565b6137ce612f0f565b60043d036004823e80513d602482011167ffffffffffffffff821117156137f6575050613849565b808201805167ffffffffffffffff8111156138145750505050613849565b80602083010160043d038501811115613831575050505050613849565b6138408260200185018661315a565b82955050505050505b90565b61385581613072565b811461386057600080fd5b50565b61386c81613084565b811461387757600080fd5b50565b61388381613090565b811461388e57600080fd5b50565b61389a816130dc565b81146138a557600080fd5b5056fea26469706673582212207c870722c898526dd37a553ce0f1ee27836e26a4bab55197e6362e7a73b7539064736f6c63430008070033",
  "linkReferences": {},
  "deployedLinkReferences": {}
}