{
  "_format": "hh-sol-artifact-1",
  "contractName": "DDCAC",
  "sourceName": "contracts/DDCAC.sol",
  "abi": [
    {
      "inputs": [
        {
          "internalType": "string",
          "name": "uri",
          "type": "string"
        }
      ],
      "stateMutability": "nonpayable",
      "type": "constructor"
    },
    {
      "anonymous": false,
      "inputs": [
        {
          "indexed": true,
          "internalType": "address",
          "name": "account",
          "type": "address"
        },
        {
          "indexed": true,
          "internalType": "address",
          "name": "operator",
          "type": "address"
        },
        {
          "indexed": false,
          "internalType": "bool",
          "name": "approved",
          "type": "bool"
        }
      ],
      "name": "ApprovalForAll",
      "type": "event"
    },
    {
      "anonymous": false,
      "inputs": [
        {
          "indexed": true,
          "internalType": "address",
          "name": "operator",
          "type": "address"
        },
        {
          "indexed": true,
          "internalType": "address",
          "name": "from",
          "type": "address"
        },
        {
          "indexed": true,
          "internalType": "address",
          "name": "to",
          "type": "address"
        },
        {
          "indexed": false,
          "internalType": "uint256[]",
          "name": "ids",
          "type": "uint256[]"
        },
        {
          "indexed": false,
          "internalType": "uint256[]",
          "name": "values",
          "type": "uint256[]"
        }
      ],
      "name": "TransferBatch",
      "type": "event"
    },
    {
      "anonymous": false,
      "inputs": [
        {
          "indexed": true,
          "internalType": "address",
          "name": "operator",
          "type": "address"
        },
        {
          "indexed": true,
          "internalType": "address",
          "name": "from",
          "type": "address"
        },
        {
          "indexed": true,
          "internalType": "address",
          "name": "to",
          "type": "address"
        },
        {
          "indexed": false,
          "internalType": "uint256",
          "name": "id",
          "type": "uint256"
        },
        {
          "indexed": false,
          "internalType": "uint256",
          "name": "value",
          "type": "uint256"
        }
      ],
      "name": "TransferSingle",
      "type": "event"
    },
    {
      "anonymous": false,
      "inputs": [
        {
          "indexed": false,
          "internalType": "string",
          "name": "value",
          "type": "string"
        },
        {
          "indexed": true,
          "internalType": "uint256",
          "name": "id",
          "type": "uint256"
        }
      ],
      "name": "URI",
      "type": "event"
    },
    {
      "inputs": [],
      "name": "MAX_SUPPLY",
      "outputs": [
        {
          "internalType": "uint256",
          "name": "",
          "type": "uint256"
        }
      ],
      "stateMutability": "view",
      "type": "function"
    },
    {
      "inputs": [],
      "name": "_tokenIds",
      "outputs": [
        {
          "internalType": "uint256",
          "name": "_value",
          "type": "uint256"
        }
      ],
      "stateMutability": "view",
      "type": "function"
    },
    {
      "inputs": [
        {
          "internalType": "address",
          "name": "account",
          "type": "address"
        },
        {
          "internalType": "uint256",
          "name": "id",
          "type": "uint256"
        }
      ],
      "name": "balanceOf",
      "outputs": [
        {
          "internalType": "uint256",
          "name": "",
          "type": "uint256"
        }
      ],
      "stateMutability": "view",
      "type": "function"
    },
    {
      "inputs": [
        {
          "internalType": "address[]",
          "name": "accounts",
          "type": "address[]"
        },
        {
          "internalType": "uint256[]",
          "name": "ids",
          "type": "uint256[]"
        }
      ],
      "name": "balanceOfBatch",
      "outputs": [
        {
          "internalType": "uint256[]",
          "name": "",
          "type": "uint256[]"
        }
      ],
      "stateMutability": "view",
      "type": "function"
    },
    {
      "inputs": [
        {
          "internalType": "address",
          "name": "owner",
          "type": "address"
        },
        {
          "internalType": "uint256",
          "name": "id",
          "type": "uint256"
        },
        {
          "internalType": "uint256",
          "name": "value",
          "type": "uint256"
        }
      ],
      "name": "burn",
      "outputs": [],
      "stateMutability": "nonpayable",
      "type": "function"
    },
    {
      "inputs": [
        {
          "internalType": "address",
          "name": "owner",
          "type": "address"
        },
        {
          "internalType": "uint256[]",
          "name": "ids",
          "type": "uint256[]"
        },
        {
          "internalType": "uint256[]",
          "name": "values",
          "type": "uint256[]"
        }
      ],
      "name": "burnBatch",
      "outputs": [],
      "stateMutability": "nonpayable",
      "type": "function"
    },
    {
      "inputs": [
        {
          "internalType": "address",
          "name": "_address",
          "type": "address"
        }
      ],
      "name": "getERC721BalanceOffChain",
      "outputs": [
        {
          "internalType": "uint256",
          "name": "",
          "type": "uint256"
        }
      ],
      "stateMutability": "view",
      "type": "function"
    },
    {
      "inputs": [],
      "name": "getOwnershipRecordOffChain",
      "outputs": [
        {
          "internalType": "address[5000]",
          "name": "",
          "type": "address[5000]"
        }
      ],
      "stateMutability": "view",
      "type": "function"
    },
    {
      "inputs": [
        {
          "internalType": "address",
          "name": "account",
          "type": "address"
        },
        {
          "internalType": "address",
          "name": "operator",
          "type": "address"
        }
      ],
      "name": "isApprovedForAll",
      "outputs": [
        {
          "internalType": "bool",
          "name": "",
          "type": "bool"
        }
      ],
      "stateMutability": "view",
      "type": "function"
    },
    {
      "inputs": [
        {
          "internalType": "address",
          "name": "to",
          "type": "address"
        }
      ],
      "name": "mint",
      "outputs": [],
      "stateMutability": "nonpayable",
      "type": "function"
    },
    {
      "inputs": [
        {
          "internalType": "uint256",
          "name": "id",
          "type": "uint256"
        }
      ],
      "name": "ownerOfERC721Like",
      "outputs": [
        {
          "internalType": "address",
          "name": "",
          "type": "address"
        }
      ],
      "stateMutability": "view",
      "type": "function"
    },
    {
      "inputs": [
        {
          "internalType": "address",
          "name": "from",
          "type": "address"
        },
        {
          "internalType": "address",
          "name": "to",
          "type": "address"
        },
        {
          "internalType": "uint256[]",
          "name": "ids",
          "type": "uint256[]"
        },
        {
          "internalType": "uint256[]",
          "name": "amounts",
          "type": "uint256[]"
        },
        {
          "internalType": "bytes",
          "name": "data",
          "type": "bytes"
        }
      ],
      "name": "safeBatchTransferFrom",
      "outputs": [],
      "stateMutability": "nonpayable",
      "type": "function"
    },
    {
      "inputs": [
        {
          "internalType": "address",
          "name": "from",
          "type": "address"
        },
        {
          "internalType": "address",
          "name": "to",
          "type": "address"
        },
        {
          "internalType": "uint256",
          "name": "id",
          "type": "uint256"
        },
        {
          "internalType": "uint256",
          "name": "amount",
          "type": "uint256"
        },
        {
          "internalType": "bytes",
          "name": "data",
          "type": "bytes"
        }
      ],
      "name": "safeTransferFrom",
      "outputs": [],
      "stateMutability": "nonpayable",
      "type": "function"
    },
    {
      "inputs": [
        {
          "internalType": "address",
          "name": "operator",
          "type": "address"
        },
        {
          "internalType": "bool",
          "name": "approved",
          "type": "bool"
        }
      ],
      "name": "setApprovalForAll",
      "outputs": [],
      "stateMutability": "nonpayable",
      "type": "function"
    },
    {
      "inputs": [
        {
          "internalType": "string",
          "name": "newuri",
          "type": "string"
        }
      ],
      "name": "setURI",
      "outputs": [],
      "stateMutability": "nonpayable",
      "type": "function"
    },
    {
      "inputs": [
        {
          "internalType": "bytes4",
          "name": "interfaceId",
          "type": "bytes4"
        }
      ],
      "name": "supportsInterface",
      "outputs": [
        {
          "internalType": "bool",
          "name": "",
          "type": "bool"
        }
      ],
      "stateMutability": "view",
      "type": "function"
    },
    {
      "inputs": [
        {
          "internalType": "uint256",
          "name": "tokenId",
          "type": "uint256"
        }
      ],
      "name": "tokenURI",
      "outputs": [
        {
          "internalType": "string",
          "name": "",
          "type": "string"
        }
      ],
      "stateMutability": "view",
      "type": "function"
    },
    {
      "inputs": [
        {
          "internalType": "uint256",
          "name": "",
          "type": "uint256"
        }
      ],
      "name": "uri",
      "outputs": [
        {
          "internalType": "string",
          "name": "",
          "type": "string"
        }
      ],
      "stateMutability": "view",
      "type": "function"
    }
  ],
  "bytecode": "0x60806040523480156200001157600080fd5b50604051620040083803806200400883398181016040528101906200003791906200019c565b8062000049816200005160201b60201c565b505062000371565b8061138990805190602001906200006a9291906200006e565b5050565b8280546200007c9062000282565b90600052602060002090601f016020900481019282620000a05760008555620000ec565b82601f10620000bb57805160ff1916838001178555620000ec565b82800160010185558215620000ec579182015b82811115620000eb578251825591602001919060010190620000ce565b5b509050620000fb9190620000ff565b5090565b5b808211156200011a57600081600090555060010162000100565b5090565b6000620001356200012f8462000216565b620001ed565b90508281526020810184848401111562000154576200015362000351565b5b620001618482856200024c565b509392505050565b600082601f8301126200018157620001806200034c565b5b8151620001938482602086016200011e565b91505092915050565b600060208284031215620001b557620001b46200035b565b5b600082015167ffffffffffffffff811115620001d657620001d562000356565b5b620001e48482850162000169565b91505092915050565b6000620001f96200020c565b9050620002078282620002b8565b919050565b6000604051905090565b600067ffffffffffffffff8211156200023457620002336200031d565b5b6200023f8262000360565b9050602081019050919050565b60005b838110156200026c5780820151818401526020810190506200024f565b838111156200027c576000848401525b50505050565b600060028204905060018216806200029b57607f821691505b60208210811415620002b257620002b1620002ee565b5b50919050565b620002c38262000360565b810181811067ffffffffffffffff82111715620002e557620002e46200031d565b5b80604052505050565b7f4e487b7100000000000000000000000000000000000000000000000000000000600052602260045260246000fd5b7f4e487b7100000000000000000000000000000000000000000000000000000000600052604160045260246000fd5b600080fd5b600080fd5b600080fd5b600080fd5b6000601f19601f8301169050919050565b613c8780620003816000396000f3fe608060405234801561001057600080fd5b50600436106101155760003560e01c80636a627842116100a2578063aa46a40011610071578063aa46a40014610302578063c87b56dd14610320578063e985e9c514610350578063f242432a14610380578063f5298aca1461039c57610115565b80636a6278421461027e5780636b20c4541461029a5780638e477789146102b6578063a22cb465146102e657610115565b80632eb2c2d6116100e95780632eb2c2d6146101c657806332cb6b0c146101e257806339f81d8b146102005780634e1273f41461023057806356e695ed1461026057610115565b8062fdd58e1461011a57806301ffc9a71461014a57806302fe53051461017a5780630e89341c14610196575b600080fd5b610134600480360381019061012f9190612707565b6103b8565b604051610141919061310a565b60405180910390f35b610164600480360381019061015f9190612812565b6104eb565b6040516101719190612ead565b60405180910390f35b610194600480360381019061018f919061286c565b6105cd565b005b6101b060048036038101906101ab91906128b5565b6105d9565b6040516101bd9190612ec8565b60405180910390f35b6101e060048036038101906101db91906124d6565b61066e565b005b6101ea61070f565b6040516101f7919061310a565b60405180910390f35b61021a60048036038101906102159190612469565b610715565b604051610227919061310a565b60405180910390f35b61024a6004803603810190610245919061279a565b6107bf565b6040516102579190612e54565b60405180910390f35b6102686108d8565b6040516102759190612e37565b60405180910390f35b61029860048036038101906102939190612469565b61095b565b005b6102b460048036038101906102af919061263c565b61098f565b005b6102d060048036038101906102cb91906128b5565b61099f565b6040516102dd9190612d5a565b60405180910390f35b61030060048036038101906102fb91906126c7565b610a98565b005b61030a610aae565b604051610317919061310a565b60405180910390f35b61033a600480360381019061033591906128b5565b610abb565b6040516103479190612ec8565b60405180910390f35b61036a60048036038101906103659190612496565b610af6565b6040516103779190612ead565b60405180910390f35b61039a600480360381019061039591906125a5565b610b8b565b005b6103b660048036038101906103b19190612747565b610c2c565b005b60008073ffffffffffffffffffffffffffffffffffffffff168373ffffffffffffffffffffffffffffffffffffffff161415610429576040517f08c379a000000000000000000000000000000000000000000000000000000000815260040161042090612f2a565b60405180910390fd5b611388821061046d576040517f08c379a000000000000000000000000000000000000000000000000000000000815260040161046490612fca565b60405180910390fd5b8273ffffffffffffffffffffffffffffffffffffffff166000836113888110610499576104986135b2565b5b0160009054906101000a900473ffffffffffffffffffffffffffffffffffffffff1673ffffffffffffffffffffffffffffffffffffffff16146104dd5760006104e0565b60015b60ff16905092915050565b60007fd9b67a26000000000000000000000000000000000000000000000000000000007bffffffffffffffffffffffffffffffffffffffffffffffffffffffff1916827bffffffffffffffffffffffffffffffffffffffffffffffffffffffff191614806105b657507f0e89341c000000000000000000000000000000000000000000000000000000007bffffffffffffffffffffffffffffffffffffffffffffffffffffffff1916827bffffffffffffffffffffffffffffffffffffffffffffffffffffffff1916145b806105c657506105c582610c3c565b5b9050919050565b6105d681610ca6565b50565b606061138980546105e990613448565b80601f016020809104026020016040519081016040528092919081815260200182805461061590613448565b80156106625780601f1061063757610100808354040283529160200191610662565b820191906000526020600020905b81548152906001019060200180831161064557829003601f168201915b50505050509050919050565b610676610cc1565b73ffffffffffffffffffffffffffffffffffffffff168573ffffffffffffffffffffffffffffffffffffffff1614806106bc57506106bb856106b6610cc1565b610af6565b5b6106fb576040517f08c379a00000000000000000000000000000000000000000000000000000000081526004016106f29061300a565b60405180910390fd5b6107088585858585610cc9565b5050505050565b61138881565b6000806000905060005b6113888110156107b5578373ffffffffffffffffffffffffffffffffffffffff166000826113888110610755576107546135b2565b5b0160009054906101000a900473ffffffffffffffffffffffffffffffffffffffff1673ffffffffffffffffffffffffffffffffffffffff1614156107a257818061079e906134ab565b9250505b80806107ad906134ab565b91505061071f565b5080915050919050565b60608151835114610805576040517f08c379a00000000000000000000000000000000000000000000000000000000081526004016107fc906130aa565b60405180910390fd5b6000835167ffffffffffffffff811115610822576108216135e1565b5b6040519080825280602002602001820160405280156108505781602001602082028036833780820191505090505b50905060005b84518110156108cd5761089d858281518110610875576108746135b2565b5b60200260200101518583815181106108905761088f6135b2565b5b60200260200101516103b8565b8282815181106108b0576108af6135b2565b5b602002602001018181525050806108c6906134ab565b9050610856565b508091505092915050565b6108e061211c565b60006113888060200260405190810160405280929190826113888015610951576020028201915b8160009054906101000a900473ffffffffffffffffffffffffffffffffffffffff1673ffffffffffffffffffffffffffffffffffffffff1681526020019060010190808311610907575b5050505050905090565b61096661138a610fba565b61098c8161097561138a610fd0565b600160405180602001604052806000815250610fde565b50565b61099a83838361120f565b505050565b600061138882106109e5576040517f08c379a00000000000000000000000000000000000000000000000000000000081526004016109dc90612fca565b60405180910390fd5b6000808361138881106109fb576109fa6135b2565b5b0160009054906101000a900473ffffffffffffffffffffffffffffffffffffffff169050600073ffffffffffffffffffffffffffffffffffffffff168173ffffffffffffffffffffffffffffffffffffffff161415610a8f576040517f08c379a0000000000000000000000000000000000000000000000000000000008152600401610a869061306a565b60405180910390fd5b80915050919050565b610aaa610aa3610cc1565b8383611513565b5050565b61138a8060000154905081565b6060610ac6826105d9565b610acf83611681565b604051602001610ae0929190612d2b565b6040516020818303038152906040529050919050565b600061138860008473ffffffffffffffffffffffffffffffffffffffff1673ffffffffffffffffffffffffffffffffffffffff16815260200190815260200160002060008373ffffffffffffffffffffffffffffffffffffffff1673ffffffffffffffffffffffffffffffffffffffff16815260200190815260200160002060009054906101000a900460ff16905092915050565b610b93610cc1565b73ffffffffffffffffffffffffffffffffffffffff168573ffffffffffffffffffffffffffffffffffffffff161480610bd95750610bd885610bd3610cc1565b610af6565b5b610c18576040517f08c379a0000000000000000000000000000000000000000000000000000000008152600401610c0f90612f6a565b60405180910390fd5b610c2585858585856117e2565b5050505050565b610c37838383611a39565b505050565b60007f01ffc9a7000000000000000000000000000000000000000000000000000000007bffffffffffffffffffffffffffffffffffffffffffffffffffffffff1916827bffffffffffffffffffffffffffffffffffffffffffffffffffffffff1916149050919050565b806113899080519060200190610cbd929190612141565b5050565b600033905090565b8151835114610d0d576040517f08c379a0000000000000000000000000000000000000000000000000000000008152600401610d04906130ca565b60405180910390fd5b600073ffffffffffffffffffffffffffffffffffffffff168473ffffffffffffffffffffffffffffffffffffffff161415610d7d576040517f08c379a0000000000000000000000000000000000000000000000000000000008152600401610d7490612fea565b60405180910390fd5b6000610d87610cc1565b9050610d97818787878787611ca1565b60005b8451811015610f17576000858281518110610db857610db76135b2565b5b602002602001015190508773ffffffffffffffffffffffffffffffffffffffff166000826113888110610dee57610ded6135b2565b5b0160009054906101000a900473ffffffffffffffffffffffffffffffffffffffff1673ffffffffffffffffffffffffffffffffffffffff16148015610e4d57506002858381518110610e4357610e426135b2565b5b6020026020010151105b610e8c576040517f08c379a0000000000000000000000000000000000000000000000000000000008152600401610e839061304a565b60405180910390fd5b6001858381518110610ea157610ea06135b2565b5b60200260200101511415610f0557866000826113888110610ec557610ec46135b2565b5b0160006101000a81548173ffffffffffffffffffffffffffffffffffffffff021916908373ffffffffffffffffffffffffffffffffffffffff1602179055505b5080610f10906134ab565b9050610d9a565b508473ffffffffffffffffffffffffffffffffffffffff168673ffffffffffffffffffffffffffffffffffffffff168273ffffffffffffffffffffffffffffffffffffffff167f4a39dc06d4c0dbc64b70af90fd698a233a518aa5d07e595d983b8c0526c8f7fb8787604051610f8e929190612e76565b60405180910390a4610fa4818787878787611ca9565b610fb2818787878787611cb1565b505050505050565b6001816000016000828254019250508190555050565b600081600001549050919050565b600073ffffffffffffffffffffffffffffffffffffffff168473ffffffffffffffffffffffffffffffffffffffff16141561104e576040517f08c379a0000000000000000000000000000000000000000000000000000000008152600401611045906130ea565b60405180910390fd5b60028210611091576040517f08c379a000000000000000000000000000000000000000000000000000000000815260040161108890612f8a565b60405180910390fd5b61138883106110d5576040517f08c379a00000000000000000000000000000000000000000000000000000000081526004016110cc90612faa565b60405180910390fd5b60006110df610cc1565b905060006110ec85611e98565b905060006110f985611e98565b905061110a83600089858589611ca1565b600185141561116957866000876113888110611129576111286135b2565b5b0160006101000a81548173ffffffffffffffffffffffffffffffffffffffff021916908373ffffffffffffffffffffffffffffffffffffffff1602179055505b8673ffffffffffffffffffffffffffffffffffffffff16600073ffffffffffffffffffffffffffffffffffffffff168473ffffffffffffffffffffffffffffffffffffffff167fc3d58168c5ae7397731d063d5bbf3d657854427343f4c083240f7aacaa2d0f6289896040516111e0929190613125565b60405180910390a46111f783600089858589611ca9565b61120683600089898989611f12565b50505050505050565b600073ffffffffffffffffffffffffffffffffffffffff168373ffffffffffffffffffffffffffffffffffffffff16141561127f576040517f08c379a00000000000000000000000000000000000000000000000000000000081526004016112769061302a565b60405180910390fd5b80518251146112c3576040517f08c379a00000000000000000000000000000000000000000000000000000000081526004016112ba906130ca565b60405180910390fd5b60006112cd610cc1565b90506112ed81856000868660405180602001604052806000815250611ca1565b60005b835181101561146f57600084828151811061130e5761130d6135b2565b5b602002602001015190508573ffffffffffffffffffffffffffffffffffffffff166000826113888110611344576113436135b2565b5b0160009054906101000a900473ffffffffffffffffffffffffffffffffffffffff1673ffffffffffffffffffffffffffffffffffffffff161480156113a357506002848381518110611399576113986135b2565b5b6020026020010151105b6113e2576040517f08c379a00000000000000000000000000000000000000000000000000000000081526004016113d990612f4a565b60405180910390fd5b60018483815181106113f7576113f66135b2565b5b6020026020010151141561145b5760008082611388811061141b5761141a6135b2565b5b0160006101000a81548173ffffffffffffffffffffffffffffffffffffffff021916908373ffffffffffffffffffffffffffffffffffffffff1602179055505b508080611467906134ab565b9150506112f0565b50600073ffffffffffffffffffffffffffffffffffffffff168473ffffffffffffffffffffffffffffffffffffffff168273ffffffffffffffffffffffffffffffffffffffff167f4a39dc06d4c0dbc64b70af90fd698a233a518aa5d07e595d983b8c0526c8f7fb86866040516114e7929190612e76565b60405180910390a461150d81856000868660405180602001604052806000815250611ca9565b50505050565b8173ffffffffffffffffffffffffffffffffffffffff168373ffffffffffffffffffffffffffffffffffffffff161415611582576040517f08c379a00000000000000000000000000000000000000000000000000000000081526004016115799061308a565b60405180910390fd5b8061138860008573ffffffffffffffffffffffffffffffffffffffff1673ffffffffffffffffffffffffffffffffffffffff16815260200190815260200160002060008473ffffffffffffffffffffffffffffffffffffffff1673ffffffffffffffffffffffffffffffffffffffff16815260200190815260200160002060006101000a81548160ff0219169083151502179055508173ffffffffffffffffffffffffffffffffffffffff168373ffffffffffffffffffffffffffffffffffffffff167f17307eab39ab6107e8899845ad3d59bd9653f200f220920489ca2b5937696c31836040516116749190612ead565b60405180910390a3505050565b606060008214156116c9576040518060400160405280600181526020017f300000000000000000000000000000000000000000000000000000000000000081525090506117dd565b600082905060005b600082146116fb5780806116e4906134ab565b915050600a826116f4919061332d565b91506116d1565b60008167ffffffffffffffff811115611717576117166135e1565b5b6040519080825280601f01601f1916602001820160405280156117495781602001600182028036833780820191505090505b5090505b600085146117d657600182611762919061335e565b9150600a8561177191906134f4565b603061177d91906132d7565b60f81b818381518110611793576117926135b2565b5b60200101907effffffffffffffffffffffffffffffffffffffffffffffffffffffffffffff1916908160001a905350600a856117cf919061332d565b945061174d565b8093505050505b919050565b600073ffffffffffffffffffffffffffffffffffffffff168473ffffffffffffffffffffffffffffffffffffffff161415611852576040517f08c379a000000000000000000000000000000000000000000000000000000000815260040161184990612fea565b60405180910390fd5b600061185c610cc1565b9050600061186985611e98565b9050600061187685611e98565b9050611886838989858589611ca1565b8773ffffffffffffffffffffffffffffffffffffffff1660008761138881106118b2576118b16135b2565b5b0160009054906101000a900473ffffffffffffffffffffffffffffffffffffffff1673ffffffffffffffffffffffffffffffffffffffff161480156118f75750600285105b611936576040517f08c379a000000000000000000000000000000000000000000000000000000000815260040161192d9061304a565b60405180910390fd5b600185141561199557866000876113888110611955576119546135b2565b5b0160006101000a81548173ffffffffffffffffffffffffffffffffffffffff021916908373ffffffffffffffffffffffffffffffffffffffff1602179055505b8673ffffffffffffffffffffffffffffffffffffffff168873ffffffffffffffffffffffffffffffffffffffff168473ffffffffffffffffffffffffffffffffffffffff167fc3d58168c5ae7397731d063d5bbf3d657854427343f4c083240f7aacaa2d0f628989604051611a0b929190613125565b60405180910390a4611a21838989858589611ca9565b611a2f838989898989611f12565b5050505050505050565b600073ffffffffffffffffffffffffffffffffffffffff168373ffffffffffffffffffffffffffffffffffffffff161415611aa9576040517f08c379a0000000000000000000000000000000000000000000000000000000008152600401611aa09061302a565b60405180910390fd5b6000611ab3610cc1565b90506000611ac084611e98565b90506000611acd84611e98565b9050611aed83876000858560405180602001604052806000815250611ca1565b8573ffffffffffffffffffffffffffffffffffffffff166000866113888110611b1957611b186135b2565b5b0160009054906101000a900473ffffffffffffffffffffffffffffffffffffffff1673ffffffffffffffffffffffffffffffffffffffff16148015611b5e5750600284105b611b9d576040517f08c379a0000000000000000000000000000000000000000000000000000000008152600401611b9490612f4a565b60405180910390fd5b6001841415611bfc57600080866113888110611bbc57611bbb6135b2565b5b0160006101000a81548173ffffffffffffffffffffffffffffffffffffffff021916908373ffffffffffffffffffffffffffffffffffffffff1602179055505b600073ffffffffffffffffffffffffffffffffffffffff168673ffffffffffffffffffffffffffffffffffffffff168473ffffffffffffffffffffffffffffffffffffffff167fc3d58168c5ae7397731d063d5bbf3d657854427343f4c083240f7aacaa2d0f628888604051611c73929190613125565b60405180910390a4611c9983876000858560405180602001604052806000815250611ca9565b505050505050565b505050505050565b505050505050565b611cd08473ffffffffffffffffffffffffffffffffffffffff166120f9565b15611e90578373ffffffffffffffffffffffffffffffffffffffff1663bc197c8187878686866040518663ffffffff1660e01b8152600401611d16959493929190612d75565b602060405180830381600087803b158015611d3057600080fd5b505af1925050508015611d6157506040513d601f19601f82011682018060405250810190611d5e919061283f565b60015b611e0757611d6d613610565b806308c379a01415611dca5750611d82613b5f565b80611d8d5750611dcc565b806040517f08c379a0000000000000000000000000000000000000000000000000000000008152600401611dc19190612ec8565b60405180910390fd5b505b6040517f08c379a0000000000000000000000000000000000000000000000000000000008152600401611dfe90612eea565b60405180910390fd5b63bc197c8160e01b7bffffffffffffffffffffffffffffffffffffffffffffffffffffffff1916817bffffffffffffffffffffffffffffffffffffffffffffffffffffffff191614611e8e576040517f08c379a0000000000000000000000000000000000000000000000000000000008152600401611e8590612f0a565b60405180910390fd5b505b505050505050565b60606000600167ffffffffffffffff811115611eb757611eb66135e1565b5b604051908082528060200260200182016040528015611ee55781602001602082028036833780820191505090505b5090508281600081518110611efd57611efc6135b2565b5b60200260200101818152505080915050919050565b611f318473ffffffffffffffffffffffffffffffffffffffff166120f9565b156120f1578373ffffffffffffffffffffffffffffffffffffffff1663f23a6e6187878686866040518663ffffffff1660e01b8152600401611f77959493929190612ddd565b602060405180830381600087803b158015611f9157600080fd5b505af1925050508015611fc257506040513d601f19601f82011682018060405250810190611fbf919061283f565b60015b61206857611fce613610565b806308c379a0141561202b5750611fe3613b5f565b80611fee575061202d565b806040517f08c379a00000000000000000000000000000000000000000000000000000000081526004016120229190612ec8565b60405180910390fd5b505b6040517f08c379a000000000000000000000000000000000000000000000000000000000815260040161205f90612eea565b60405180910390fd5b63f23a6e6160e01b7bffffffffffffffffffffffffffffffffffffffffffffffffffffffff1916817bffffffffffffffffffffffffffffffffffffffffffffffffffffffff1916146120ef576040517f08c379a00000000000000000000000000000000000000000000000000000000081526004016120e690612f0a565b60405180910390fd5b505b505050505050565b6000808273ffffffffffffffffffffffffffffffffffffffff163b119050919050565b6040518062027100016040528061138890602082028036833780820191505090505090565b82805461214d90613448565b90600052602060002090601f01602090048101928261216f57600085556121b6565b82601f1061218857805160ff19168380011785556121b6565b828001600101855582156121b6579182015b828111156121b557825182559160200191906001019061219a565b5b5090506121c391906121c7565b5090565b5b808211156121e05760008160009055506001016121c8565b5090565b60006121f76121f284613173565b61314e565b9050808382526020820190508285602086028201111561221a57612219613637565b5b60005b8581101561224a57816122308882612348565b84526020840193506020830192505060018101905061221d565b5050509392505050565b60006122676122628461319f565b61314e565b9050808382526020820190508285602086028201111561228a57612289613637565b5b60005b858110156122ba57816122a08882612454565b84526020840193506020830192505060018101905061228d565b5050509392505050565b60006122d76122d2846131cb565b61314e565b9050828152602081018484840111156122f3576122f261363c565b5b6122fe848285613406565b509392505050565b6000612319612314846131fc565b61314e565b9050828152602081018484840111156123355761233461363c565b5b612340848285613406565b509392505050565b60008135905061235781613bf5565b92915050565b600082601f83011261237257612371613632565b5b81356123828482602086016121e4565b91505092915050565b600082601f8301126123a05761239f613632565b5b81356123b0848260208601612254565b91505092915050565b6000813590506123c881613c0c565b92915050565b6000813590506123dd81613c23565b92915050565b6000815190506123f281613c23565b92915050565b600082601f83011261240d5761240c613632565b5b813561241d8482602086016122c4565b91505092915050565b600082601f83011261243b5761243a613632565b5b813561244b848260208601612306565b91505092915050565b60008135905061246381613c3a565b92915050565b60006020828403121561247f5761247e613646565b5b600061248d84828501612348565b91505092915050565b600080604083850312156124ad576124ac613646565b5b60006124bb85828601612348565b92505060206124cc85828601612348565b9150509250929050565b600080600080600060a086880312156124f2576124f1613646565b5b600061250088828901612348565b955050602061251188828901612348565b945050604086013567ffffffffffffffff81111561253257612531613641565b5b61253e8882890161238b565b935050606086013567ffffffffffffffff81111561255f5761255e613641565b5b61256b8882890161238b565b925050608086013567ffffffffffffffff81111561258c5761258b613641565b5b612598888289016123f8565b9150509295509295909350565b600080600080600060a086880312156125c1576125c0613646565b5b60006125cf88828901612348565b95505060206125e088828901612348565b94505060406125f188828901612454565b935050606061260288828901612454565b925050608086013567ffffffffffffffff81111561262357612622613641565b5b61262f888289016123f8565b9150509295509295909350565b60008060006060848603121561265557612654613646565b5b600061266386828701612348565b935050602084013567ffffffffffffffff81111561268457612683613641565b5b6126908682870161238b565b925050604084013567ffffffffffffffff8111156126b1576126b0613641565b5b6126bd8682870161238b565b9150509250925092565b600080604083850312156126de576126dd613646565b5b60006126ec85828601612348565b92505060206126fd858286016123b9565b9150509250929050565b6000806040838503121561271e5761271d613646565b5b600061272c85828601612348565b925050602061273d85828601612454565b9150509250929050565b6000806000606084860312156127605761275f613646565b5b600061276e86828701612348565b935050602061277f86828701612454565b925050604061279086828701612454565b9150509250925092565b600080604083850312156127b1576127b0613646565b5b600083013567ffffffffffffffff8111156127cf576127ce613641565b5b6127db8582860161235d565b925050602083013567ffffffffffffffff8111156127fc576127fb613641565b5b6128088582860161238b565b9150509250929050565b60006020828403121561282857612827613646565b5b6000612836848285016123ce565b91505092915050565b60006020828403121561285557612854613646565b5b6000612863848285016123e3565b91505092915050565b60006020828403121561288257612881613646565b5b600082013567ffffffffffffffff8111156128a05761289f613641565b5b6128ac84828501612426565b91505092915050565b6000602082840312156128cb576128ca613646565b5b60006128d984828501612454565b91505092915050565b60006128ee8383612912565b60208301905092915050565b60006129068383612d0d565b60208301905092915050565b61291b81613392565b82525050565b61292a81613392565b82525050565b61293981613247565b612943818461328e565b925061294e8261322d565b8060005b8381101561297f57815161296687826128e2565b965061297183613274565b925050600181019050612952565b505050505050565b600061299282613253565b61299c8185613299565b93506129a783613237565b8060005b838110156129d85781516129bf88826128fa565b97506129ca83613281565b9250506001810190506129ab565b5085935050505092915050565b6129ee816133a4565b82525050565b60006129ff8261325e565b612a0981856132aa565b9350612a19818560208601613415565b612a228161364b565b840191505092915050565b6000612a3882613269565b612a4281856132bb565b9350612a52818560208601613415565b612a5b8161364b565b840191505092915050565b6000612a7182613269565b612a7b81856132cc565b9350612a8b818560208601613415565b80840191505092915050565b6000612aa46034836132bb565b9150612aaf82613669565b604082019050919050565b6000612ac76028836132bb565b9150612ad2826136b8565b604082019050919050565b6000612aea602b836132bb565b9150612af582613707565b604082019050919050565b6000612b0d6024836132bb565b9150612b1882613756565b604082019050919050565b6000612b306029836132bb565b9150612b3b826137a5565b604082019050919050565b6000612b536018836132bb565b9150612b5e826137f4565b602082019050919050565b6000612b766014836132bb565b9150612b818261381d565b602082019050919050565b6000612b99601c836132bb565b9150612ba482613846565b602082019050919050565b6000612bbc6025836132bb565b9150612bc78261386f565b604082019050919050565b6000612bdf6032836132bb565b9150612bea826138be565b604082019050919050565b6000612c026023836132bb565b9150612c0d8261390d565b604082019050919050565b6000612c25602a836132bb565b9150612c308261395c565b604082019050919050565b6000612c486005836132cc565b9150612c53826139ab565b600582019050919050565b6000612c6b602b836132bb565b9150612c76826139d4565b604082019050919050565b6000612c8e6029836132bb565b9150612c9982613a23565b604082019050919050565b6000612cb16029836132bb565b9150612cbc82613a72565b604082019050919050565b6000612cd46028836132bb565b9150612cdf82613ac1565b604082019050919050565b6000612cf76021836132bb565b9150612d0282613b10565b604082019050919050565b612d16816133fc565b82525050565b612d25816133fc565b82525050565b6000612d378285612a66565b9150612d438284612a66565b9150612d4e82612c3b565b91508190509392505050565b6000602082019050612d6f6000830184612921565b92915050565b600060a082019050612d8a6000830188612921565b612d976020830187612921565b8181036040830152612da98186612987565b90508181036060830152612dbd8185612987565b90508181036080830152612dd181846129f4565b90509695505050505050565b600060a082019050612df26000830188612921565b612dff6020830187612921565b612e0c6040830186612d1c565b612e196060830185612d1c565b8181036080830152612e2b81846129f4565b90509695505050505050565b60006202710082019050612e4e6000830184612930565b92915050565b60006020820190508181036000830152612e6e8184612987565b905092915050565b60006040820190508181036000830152612e908185612987565b90508181036020830152612ea48184612987565b90509392505050565b6000602082019050612ec260008301846129e5565b92915050565b60006020820190508181036000830152612ee28184612a2d565b905092915050565b60006020820190508181036000830152612f0381612a97565b9050919050565b60006020820190508181036000830152612f2381612aba565b9050919050565b60006020820190508181036000830152612f4381612add565b9050919050565b60006020820190508181036000830152612f6381612b00565b9050919050565b60006020820190508181036000830152612f8381612b23565b9050919050565b60006020820190508181036000830152612fa381612b46565b9050919050565b60006020820190508181036000830152612fc381612b69565b9050919050565b60006020820190508181036000830152612fe381612b8c565b9050919050565b6000602082019050818103600083015261300381612baf565b9050919050565b6000602082019050818103600083015261302381612bd2565b9050919050565b6000602082019050818103600083015261304381612bf5565b9050919050565b6000602082019050818103600083015261306381612c18565b9050919050565b6000602082019050818103600083015261308381612c5e565b9050919050565b600060208201905081810360008301526130a381612c81565b9050919050565b600060208201905081810360008301526130c381612ca4565b9050919050565b600060208201905081810360008301526130e381612cc7565b9050919050565b6000602082019050818103600083015261310381612cea565b9050919050565b600060208201905061311f6000830184612d1c565b92915050565b600060408201905061313a6000830185612d1c565b6131476020830184612d1c565b9392505050565b6000613158613169565b9050613164828261347a565b919050565b6000604051905090565b600067ffffffffffffffff82111561318e5761318d6135e1565b5b602082029050602081019050919050565b600067ffffffffffffffff8211156131ba576131b96135e1565b5b602082029050602081019050919050565b600067ffffffffffffffff8211156131e6576131e56135e1565b5b6131ef8261364b565b9050602081019050919050565b600067ffffffffffffffff821115613217576132166135e1565b5b6132208261364b565b9050602081019050919050565b6000819050919050565b6000819050602082019050919050565b60006113889050919050565b600081519050919050565b600081519050919050565b600081519050919050565b6000602082019050919050565b6000602082019050919050565b600081905092915050565b600082825260208201905092915050565b600082825260208201905092915050565b600082825260208201905092915050565b600081905092915050565b60006132e2826133fc565b91506132ed836133fc565b9250827fffffffffffffffffffffffffffffffffffffffffffffffffffffffffffffffff0382111561332257613321613525565b5b828201905092915050565b6000613338826133fc565b9150613343836133fc565b92508261335357613352613554565b5b828204905092915050565b6000613369826133fc565b9150613374836133fc565b92508282101561338757613386613525565b5b828203905092915050565b600061339d826133dc565b9050919050565b60008115159050919050565b60007fffffffff0000000000000000000000000000000000000000000000000000000082169050919050565b600073ffffffffffffffffffffffffffffffffffffffff82169050919050565b6000819050919050565b82818337600083830152505050565b60005b83811015613433578082015181840152602081019050613418565b83811115613442576000848401525b50505050565b6000600282049050600182168061346057607f821691505b6020821081141561347457613473613583565b5b50919050565b6134838261364b565b810181811067ffffffffffffffff821117156134a2576134a16135e1565b5b80604052505050565b60006134b6826133fc565b91507fffffffffffffffffffffffffffffffffffffffffffffffffffffffffffffffff8214156134e9576134e8613525565b5b600182019050919050565b60006134ff826133fc565b915061350a836133fc565b92508261351a57613519613554565b5b828206905092915050565b7f4e487b7100000000000000000000000000000000000000000000000000000000600052601160045260246000fd5b7f4e487b7100000000000000000000000000000000000000000000000000000000600052601260045260246000fd5b7f4e487b7100000000000000000000000000000000000000000000000000000000600052602260045260246000fd5b7f4e487b7100000000000000000000000000000000000000000000000000000000600052603260045260246000fd5b7f4e487b7100000000000000000000000000000000000000000000000000000000600052604160045260246000fd5b600060033d111561362f5760046000803e61362c60005161365c565b90505b90565b600080fd5b600080fd5b600080fd5b600080fd5b600080fd5b6000601f19601f8301169050919050565b60008160e01c9050919050565b7f455243313135353a207472616e7366657220746f206e6f6e204552433131353560008201527f526563656976657220696d706c656d656e746572000000000000000000000000602082015250565b7f455243313135353a204552433131353552656365697665722072656a6563746560008201527f6420746f6b656e73000000000000000000000000000000000000000000000000602082015250565b7f455243313135353a2062616c616e636520717565727920666f7220746865207a60008201527f65726f2061646472657373000000000000000000000000000000000000000000602082015250565b7f455243313135353a206275726e20616d6f756e7420657863656564732062616c60008201527f616e636500000000000000000000000000000000000000000000000000000000602082015250565b7f455243313135353a2063616c6c6572206973206e6f74206f776e6572206e6f7260008201527f20617070726f7665640000000000000000000000000000000000000000000000602082015250565b7f45524331313535443a206578636565647320737570706c790000000000000000600082015250565b7f45524331313535443a20696e76616c6964206964000000000000000000000000600082015250565b7f45524331313535443a2069642065786365656473206d6178696d756d00000000600082015250565b7f455243313135353a207472616e7366657220746f20746865207a65726f20616460008201527f6472657373000000000000000000000000000000000000000000000000000000602082015250565b7f455243313135353a207472616e736665722063616c6c6572206973206e6f742060008201527f6f776e6572206e6f7220617070726f7665640000000000000000000000000000602082015250565b7f455243313135353a206275726e2066726f6d20746865207a65726f206164647260008201527f6573730000000000000000000000000000000000000000000000000000000000602082015250565b7f455243313135353a20696e73756666696369656e742062616c616e636520666f60008201527f72207472616e7366657200000000000000000000000000000000000000000000602082015250565b7f2e6a736f6e000000000000000000000000000000000000000000000000000000600082015250565b7f45524331313535443a206f776e657220717565727920666f72206e6f6e65786960008201527f7374656e7420746f6b656e000000000000000000000000000000000000000000602082015250565b7f455243313135353a2073657474696e6720617070726f76616c2073746174757360008201527f20666f722073656c660000000000000000000000000000000000000000000000602082015250565b7f455243313135353a206163636f756e747320616e6420696473206c656e67746860008201527f206d69736d617463680000000000000000000000000000000000000000000000602082015250565b7f455243313135353a2069647320616e6420616d6f756e7473206c656e6774682060008201527f6d69736d61746368000000000000000000000000000000000000000000000000602082015250565b7f455243313135353a206d696e7420746f20746865207a65726f2061646472657360008201527f7300000000000000000000000000000000000000000000000000000000000000602082015250565b600060443d1015613b6f57613bf2565b613b77613169565b60043d036004823e80513d602482011167ffffffffffffffff82111715613b9f575050613bf2565b808201805167ffffffffffffffff811115613bbd5750505050613bf2565b80602083010160043d038501811115613bda575050505050613bf2565b613be98260200185018661347a565b82955050505050505b90565b613bfe81613392565b8114613c0957600080fd5b50565b613c15816133a4565b8114613c2057600080fd5b50565b613c2c816133b0565b8114613c3757600080fd5b50565b613c43816133fc565b8114613c4e57600080fd5b5056fea2646970667358221220544c5a6f3bad016045b8bf11a43214a7a93ccd56851083a2e9edc3a36a1689ff64736f6c63430008070033",
  "linkReferences": {},
  "deployedLinkReferences": {}
}